:100000000C9412020C943A020C943A020C943A02A8
:100010000C943A020C943A020C943A020C94220F7B
:100020000C943A020C943A020C943A020C943A0260
:100030000C943A020C943A020C943A020C943A0250
:100040000C94800E0C943A020C94F00E0C94CA0E90
:100050000C943A020C943A020C943A020C943A0230
:100060000C943A020C943A02636865636B466972B9
:100070006D7761726556657273696F6E3A20003AEA
:10008000393030302F6D6A706700566964656F20B3
:1000900073747265616D65722073746172746564E6
:1000A000206F6E20687474703A2F2F003A005765E5
:1000B0006253657276657220737461727465642030
:1000C0006F6E2077733A2F2F004C6567616379203C
:1000D00045535033322D43414D3A204150207570E5
:1000E0002C2073657474696E677320706167652076
:1000F0006F6E20687474703A2F2F0045535033325E
:10010000206669726D776172652076657273696FBA
:100110006E206E6F74206D61746368002E002E0077
:100120004553503332206669726D7761726520766F
:10013000657273696F6E206E6F74206D6174636891
:100140002C206D696E69616C206669726D776172D1
:10015000652076657273696F6E2069732000455360
:10016000503332206669726D7761726520766572F0
:1001700073696F6E20004F6B696521003D3D3D3D09
:100180003D3D3D3D3D3D3D3D3D3D3D3D3D3D3D3D9F
:100190003D3D3D3D3D3D3D3D3D3D3D3D3D3D3D3D8F
:1001A0003D3D3D3D3D3D3D3D3D3D3D3D3D3D0020D9
:1001B0002020332E20526573746172742074686538
:1001C00020726F7665720020202020202063616DF0
:1001D000657261206669726D7761726520282E6292
:1001E000696E2900202020322E204F70656E206815
:1001F0007474703A2F2F3139322E3136382E342E16
:10020000312F20616E642075706C6F61642074689A
:1002100065206E65770029002220280020202031EB
:100220002E20436F6E6E65637420796F7572207037
:10023000686F6E652F504320746F205769466920A0
:100240002200205468652063616D657261205769E2
:100250004669206973206F6E206E6F773A002050D8
:100260006C65617365207570646174652074686580
:100270002063616D657261206669726D7761726578
:1002800020746F20312E352E30206F72206E6577EE
:1002900065722E00204C65676163792045535033A9
:1002A000322D43414D206669726D7761726520641D
:1002B000657465637465643A20003D3D3D3D3D3D98
:1002C0003D3D3D3D3D3D3D3D3D3D3D3D3D3D3D3D5E
:1002D0003D3D3D3D3D3D3D3D3D3D3D3D3D3D3D3D4E
:1002E0003D3D3D3D3D3D3D3D3D3D3D3D00496E6912
:1002F0007469616C7A696E672E2E2E005753422BFB
:1003000000202D3E20004D6F6465204368616E67BC
:10031000653A200057532B004150502053544F5002
:10032000004150500049444C4500537461746520AD
:100330006368616E67656420746F200000000000D0
:10034000240027002A0000000000230026002900C6
:100350000000000800020100000304070000000084
:1003600000000000CDCCCC3D0AD7233C17B7D138D4
:1003700077CC2B329595E6241FB14F0A000020411F
:100380000000C84200401C4620BCBE4CCA1B0E5A8E
:10039000AEC59D745B4641494C5D005B4F4B5D00B3
:1003A0002E2E2E005345542B00636865636B7375C6
:1003B0006D206572726F722C206578706563743A77
:1003C0002000656E642062797465206572726F72B8
:1003D0000062696E6172792073746172742062794F
:1003E0007465206572726F723A20307800010204E1
:1003F00008102040800102040810200102040810A7
:100400002000000000250028002B00040404040440
:1004100004040402020202020203030303030300B2
:10042000E60F701711241FBECFEFD8E0DEBFCDBF9F
:1004300012E0A0E0B1E0ECEBFAE302C005900D920F
:10044000A432B107D9F724E0A4E2B2E001C01D92C2
:10045000A33CB207E1F712E0C1E1D2E004C021976A
:10046000FE010E94221BC031D107C9F70E945D1016
:100470000C94511D0C940000833081F028F48130DD
:1004800099F08230A9F008958730A9F08830C9F03A
:100490008430B1F4809180008F7D03C08091800012
:1004A0008F7780938000089584B58F7784BD0895F9
:1004B00084B58F7DFBCF8091B0008F778093B000A3
:1004C00008958091B0008F7DF9CFCF93DF93282FCF
:1004D00030E0F901E05BFC4F8491F901E351FC4FFE
:1004E000D491F901E55FFB4FC491CC23A1F08111B8
:1004F0000E943C02EC2FF0E0EE0FFF1FEA5BFC4F86
:10050000A591B491EC91ED2381E090E009F480E0B5
:10051000DF91CF91089580E090E0FACF1F93CF93C1
:10052000DF93282F30E0F901E05BFC4F8491F90163
:10053000E351FC4FD491F901E55FFB4FC491CC230B
:10054000A9F0162F81110E943C02EC2FF0E0EE0F73
:10055000FF1FEF5FFB4FA591B4918FB7F894EC911B
:10056000111108C0D095DE23DC938FBFDF91CF91AE
:100570001F910895DE2BF8CFCF93DF9390E0FC011D
:10058000E351FC4F2491855F9B4FFC0184918823AC
:10059000D1F090E0880F991FFC01E45CFC4FA5911D
:1005A000B491FC01EF5FFB4FC591D49161110EC076
:1005B0009FB7F8948C91E22FE0958E238C9328813D
:1005C000E223E8839FBFDF91CF9108958FB7F8941E
:1005D000EC91E22BEC938FBFF6CFCF93EAE3F2E0FE
:1005E000AFEF90E0208187FF05C027FF47C0AF3FF6
:1005F00041F406C0821709F441C0AF3F11F427FD52
:10060000A92F9F5F3996943169F787FD3AC0AF3FB4
:1006100009F437C0C82F89E0A802D0011124A65CD4
:10062000BD4FCC932091390211962C9311978C2FAA
:100630000C2E000C990BFC01E55FFB4FE491F0E000
:10064000EE0FFF1FEF5FFB4F4591549113965C93A4
:100650004E931297FC01E351FC4FE4911496EC93F6
:10066000149715966C9360E0211161E08C2F0E9425
:100670008E0261E08C2FCF910C94BC02658387FDC4
:10068000BCCFCF910895282F30E0A0EDB7E00E94B5
:10069000DE1924EB30E040E050E00E945B192C5062
:1006A0003E4F4F4F5F4FAFEFB0E00E947A192AE103
:1006B00031E440E050E00E945B19622F8091C10359
:1006C0000C94ED023FB7F894809135029091360278
:1006D000A0913702B091380226B5A89B05C02F3FE4
:1006E00019F00196A11DB11D3FBFBA2FA92F982F58
:1006F0008827BC01CD01620F711D811D911D42E053
:10070000660F771F881F991F4A95D1F708958F921A
:100710009F92AF92BF92CF92DF92EF92FF924B01E6
:100720005C010E9462036B017C010E9462036C19F0
:100730007D098E099F09683E734081059105A8F3E4
:1007400021E0821A9108A108B10888EEC80E83E062
:10075000D81EE11CF11C81149104A104B10429F7F5
:10076000FF90EF90DF90CF90BF90AF909F908F90D1
:1007700008952FB7F8946091310270913202809100
:100780003302909134022FBF08950895AF92BF9223
:10079000CF92DF92EF92FF920F931F93CF93DF934D
:1007A0006C017B018B01040F151FEB015E01AE187C
:1007B000BF08C017D10759F06991D601ED91FC919E
:1007C0000190F081E02DC6010995892B79F7C501CB
:1007D000DF91CF911F910F91FF90EF90DF90CF901D
:1007E000BF90AF900895FC01538D448D252F30E0CC
:1007F000842F90E0821B930B541710F0CF9608952E
:1008000001970895FC01918D828D981761F0A28D5A
:10081000AE0FBF2FB11D5D968C91928D9F5F9F7320
:10082000928F90E008958FEF9FEF0895FC01918DD6
:10083000828D981731F0828DE80FF11D858D90E043
:1008400008958FEF9FEF0895FC01918D228D892FE0
:1008500090E0805C9F4F821B91098F7399270895C8
:100860008EEE92E00E94240421E0892B09F420E01E
:10087000822F089580E090E0892B29F00E943004B7
:1008800081110C9400000895FC01A48DA80FB92FCC
:10089000B11DA35ABF4F2C91848D90E001968F73A8
:1008A0009927848FA689B7892C93A089B1898C91C7
:1008B000837080648C93938D848D981306C0028816
:1008C000F389E02D80818F7D80830895EF92FF92E0
:1008D0000F931F93CF93DF93EC0181E0888F9B8D63
:1008E0008C8D98131AC0E889F989808185FF15C01D
:1008F0009FB7F894EE89FF896083E889F989808140
:100900008370806480839FBF81E090E0DF91CF910E
:100910001F910F91FF90EF900895F62E0B8D10E030
:100920000F5F1F4F0F731127E02E8C8D8E110CC09F
:100930000FB607FCFACFE889F989808185FFF5CFEA
:10094000CE010E944404F1CFEB8DEC0FFD2FF11D81
:10095000E35AFF4FF0829FB7F8940B8FEA89FB8927
:1009600080818062CFCF0F931F93CF93DF938C0151
:10097000D0E0C0E0F801EC0FFD1F6491662341F068
:100980008EEE92E00E946604892B11F02196F2CF40
:10099000CE01DF91CF911F910F910895CF93DF93F7
:1009A000EC01888D8823B9F0AA89BB89E889F98987
:1009B0008C9185FD03C0808186FD0DC00FB607FCBC
:1009C000F7CF8C9185FFF2CF808185FFEDCFCE01EF
:1009D0000E944404E9CFDF91CF910895CF93DF9334
:1009E000EC0188819981DC01ED91FC910190F0810D
:1009F000E02D09952A813B81820F931F9B838A8377
:100A0000DF91CF910895CF93DF93EC018881998195
:100A1000DC01ED91FC910280F381E02D09952A81A2
:100A20003B81820F931F9B838A83DF91CF9108952F
:100A30008F929F92AF92BF92CF92DF92EF92FF92EE
:100A40000F931F93CF93DF93CDB7DEB766970FB6A3
:100A5000F894DEBF0FBECDBF6C018E01095E1F4F43
:100A600078018AE0882E912CA12CB12CCB01BA01FF
:100A7000A50194010E94BC19942F852F605DF80197
:100A800062938F01A901692F782F411551056105E6
:100A9000710561F7A7014E1B5F0BBF01C6010E94E4
:100AA000030566960FB6F894DEBF0FBECDBFDF918B
:100AB000CF911F910F91FF90EF90DF90CF90BF905B
:100AC000AF909F908F900895EF92FF920F931F9396
:100AD000CF93DF93282FEB018A01EAE3F2E080EF66
:100AE000E82E8FE0F82E808127FF0EC087FF0EC012
:100AF000399682E0EE3EF807B1F7DF91CF911F9172
:100B00000F91FF90EF9008952813F2CF60E02097A7
:100B100021F0C701BE010E94071B678360E0011539
:100B2000110521F0C701B8010E94071B608727FD4E
:100B3000DFCFE3CF1F93CF93DF93182FC42F70E045
:100B400090E080E00E943E1820E030E040E85EE364
:100B50000E949D180E94CC1AD62F6C2F70E090E056
:100B600080E00E943E1826E636E646EE5EE30E94EE
:100B70009D180E94CC1AC62F612F8CE00E94ED02B6
:100B80006D2F8DE00E94ED026C2F8BE0DF91CF91F5
:100B90001F910C94ED022F923F924F925F926F92B1
:100BA0007F928F929F92AF92BF92CF92DF92EF92FD
:100BB000FF920F931F93CF93DF93CDB7DEB7649768
:100BC0000FB6F894DEBF0FBECDBF8D876E875E0176
:100BD0008DE0A80EB11C1E019BE0290E311CFE0108
:100BE0003996FC8BEB8B7E01FFE0EF0EF11C6E0162
:100BF00085E0C80ED11CFE0131964F01FA8AE98AC0
:100C000040901101509012016090130170901401F6
:100C1000F501A1915F0181E01A160CF080E0F1016D
:100C200080831986F1E0FA87EB89FC898191FC8B3E
:100C3000EB8B882331F081E01A160CF480E0F1018F
:100C40008083A11145C0F7011082F10111911F01AC
:100C5000F70101917F014D825E826F827886109F3D
:100C6000602D1124F60180810E94ED0249825A8292
:100C70006B827C82F1E01F27109F602D1124F4010C
:100C800081810E94ED02F2E0CF0ED11C82E0880E3D
:100C9000911CE989FA89AE16BF0609F0B9CF6496AE
:100CA0000FB6F894DEBF0FBECDBFDF91CF911F917D
:100CB0000F91FF90EF90DF90CF90BF90AF909F90FB
:100CC0008F907F906F905F904F903F902F900895FE
:100CD0000A2E000CBB0BB7FF03C0B195A195B1095B
:100CE00023EE30E00E941B1B24E630E040E050E0A1
:100CF0000E945B19245E3F4F4F4F5F4FF7012083E7
:100D0000A4CFFC0101900020E9F73197AF01481B07
:100D1000590BBC018EEE92E00C94C603CF93DF9387
:100D20000E94B304EC0184E391E00E9481068C0FE1
:100D30009D1FDF91CF9108958F929F92AF92BF92A6
:100D40000F931F93CF93DF93CDB7DEB7A1970FB665
:100D5000F894DEBF0FBECDBF19A2423008F44AE0BE
:100D60008E010F5D1F4F842E912CB12CA12CA5015B
:100D700094010E94BC19E62FB901CA01EA30F4F4CB
:100D8000E05DD801EE938D01232B242B252B79F7E1
:100D900090E080E0109719F0CD010E948106A196A5
:100DA0000FB6F894DEBF0FBECDBFDF91CF911F917C
:100DB0000F91BF90AF909F908F900895E95CE1CF25
:100DC000CF92DF92EF92FF92CF93DF936B017C0182
:100DD0006DE28EEE92E00E946604EC0166277727B2
:100DE000CB016C197D098E099F094AE00E949C067F
:100DF0008C0F9D1FDF91CF91FF90EF90DF90CF90F0
:100E00000895BC01990F880B990B4AE00C949C063D
:100E1000CF93DF93D0E0C0E0009719F00E948106E5
:100E2000EC0184E391E00E9481068C0F9D1FDF910D
:100E3000CF9108950C9481060F931F93CF93DF9366
:100E4000EB01FC0101900020E9F73197E81BF90B59
:100E50008F01112770E0A72FB0E0A017B1078CF425
:100E6000AD014C0F5D1FA80FB91F401751073CF48F
:100E7000480F591FFA0120812C937F5FECCF1C9201
:100E8000FCCFDF91CF911F910F910895FB0101904D
:100E90000020E9F73197AF01461B570B0C9403056F
:100EA000CF92DF92EF92FF920F931F93CF93DF9336
:100EB0008C016B017A0162E20E94EE04E601EC0C07
:100EC000FD1CEC16FD0699F06991E7E3F1E0D48092
:100ED000DD20C9F0329683816813F9CF6CE5C80133
:100EE0000E94EE046D2DC8010E94EE04EACF62E27A
:100EF000C801DF91CF911F910F91FF90EF90DF908C
:100F0000CF900C94EE046111EECF6AE471E0C80159
:100F10000E944607D6CF2F923F924F925F926F92D8
:100F20007F928F929F92AF92BF92CF92DF92EF9279
:100F3000FF920F931F93CF93DF93CDB7DEB76B97DD
:100F40000FB6F894DEBF0FBECDBF7C018B01DC0174
:100F500014968C911497863009F4D7C2E8F4833044
:100F600009F4C6C248F4823009F49BC261E571E01D
:100F7000C8010E944607A6C2843009F4A8C2853081
:100F8000A9F7ED91FC91438150E0BF016C5F7F4F69
:100F9000C8010E9450072EC28E3009F455C0E0F4FB
:100FA0008A3009F4ADC28C3009F7CD90DD90ED9018
:100FB000FC90B701A601F7FE0BC06DE2C8010E94CC
:100FC000EE0444275527BA014C195D096E097F09C3
:100FD000C8010E9418050EC2803209F427C280346D
:100FE00029F66BE5C8010E94EE04D701FC9096E05B
:100FF000D92EBFEFFB1609F4F9C1F801A481B58120
:10100000EF2DE295EF70F4E0EF9FC00111245596AB
:10101000ED91FC91E80FF91F9F2D9F70E280F38006
:101020009D9DE00CF11C1124B801C7010E948B07A3
:10103000D7011596FC90BFEFFB1609F4D7C16CE2FF
:10104000C8010E94EE04D5CFF70180809180A28074
:10105000B380A5019401C501B4010E94371888230B
:1010600031F061E571E0C8010E944607C3C120E08C
:1010700030E0A901C501B4010E943718882371F03E
:10108000A5019401C501B4010E94EE199B01AC01B8
:10109000C501B4010E943718882319F320E030E01D
:1010A000A901C501B4010E94371887FF08C06DE28D
:1010B000C8010E94EE04B7FAB094B7F8B09420E8E3
:1010C00036E948E15BE4C501B4010E94021B87FDDB
:1010D00083C0B4E1CB2ED12C80E2E82EF12C312C50
:1010E000212CF601E458FC4F6591759185919491FE
:1010F000A50194010E94371818167CF0F601EC59EE
:10110000FC4F2591359145915491C501B4010E9440
:101110009D184B015C012E0C3F1CF594E794F4E004
:10112000CF1AD1082CEFC2162FEFD206D1F63FEF1F
:101130003F8B20E030E0A901C501B4010E94021BF1
:1011400018160CF051C02CEA35EC47E257E3C50104
:10115000B4010E94371818160CF446C0AF89B4E0E9
:10116000AB02C0011124D12CC12CFC01EC59FC4F65
:101170002F019C0124583C4F39013F893F3F09F41E
:1011800033C0F201EC0DFD1D65917591859194912F
:1011900020E030E040E251E40E949D18A501940156
:1011A0000E94021B18167CF4F301EC0DFD1D259125
:1011B000359145915491C501B4010E949D184B0190
:1011C0005C012E183F08F594E7948F8981508F8B2E
:1011D00094E0C91AD108D1CFF0E2EF2EF12C85E0CE
:1011E0008F8B312C212CA5CFC501B4010E94D31ABD
:1011F0006B017C012B013C0180E492E4AFE0B0E0A4
:10120000888F998FAA8FBB8F96E09F8BAAE04A1692
:10121000510461047104E0F0688D798D8A8D9B8D95
:101220002AE030E040E050E00E94BC19288F398F5E
:101230004A8F5B8FBF89B150BF8BC301B2012AE0D7
:1012400030E040E050E00E94BC1929013A01DECFB5
:10125000C701B6010E943C189B01AC01C501B40155
:101260000E94ED194B015C01688D798D8A8D9B8DF3
:101270000E943C189B01AC01C501B4010E949D185D
:101280002B013C010E94D31A4B015C010E943C18C7
:101290009B01AC01C301B2010E94ED199B01AC019D
:1012A0000E94EE190E94D31A860E971EA81EB91E20
:1012B000888D998DAA8DBB8D88169906AA06BB06C6
:1012C000C0F09FEFC91AD90AE90AF90A21143104BA
:1012D00039F1AAE0CA16D104E104F10408F1BFEF24
:1012E0002B1A3B0A812C912C5401C12CD12C760154
:1012F000C3946AE0462E512C612C712CC501B401B7
:10130000A30192010E94BC19672B682B692B61F421
:10131000EF891E164CF449015A01E150EF8BEECFD4
:10132000812C912C5401E5CFB701A601C8010E9480
:101330001805FF89FF2391F16E0121E1C20ED11C36
:10134000F88F76015AE0452E512C612C712C388D86
:101350003150388F3F3F69F0C501B401A3019201BC
:101360000E94BC19605DD6016E936D0149015A015E
:10137000EECFBF898B2F90E0BC0160957095F7018F
:10138000E81BF90B31978EE2808344275527461BD3
:10139000570B6E0D7F1DC8010E94030521143104F7
:1013A00049F165E6C8010E94EE04710137FE07C0ED
:1013B0006DE2C8010E94EE04F194E194F108FE018F
:1013C00077969F014AE0C42ED12CC701B6010E9436
:1013D000071B805D82937B01672BB9F7A9014E1B28
:1013E0005F0BBF01C8010E94030504C06DE5C80181
:1013F0000E94EE04F801828193816B960FB6F894F7
:10140000DEBF0FBECDBFDF91CF911F910F91FF9037
:10141000EF90DF90CF90BF90AF909F908F907F9094
:101420006F905F904F903F902F9008956BE7C801A9
:101430000E94EE04D701FC90DD24D39486E0B82E00
:10144000CC24C394BFEFFB1651F1F801A481B58100
:10145000EF2DE295EF70F4E0EF9FC0011124559657
:10146000ED91FC91E80FF91F9F2D9F70E280F380B2
:101470009B9DE00CF11C1124B801C7010E948B0751
:10148000D7011596FC90BFEFFB1639F06AE3D11037
:1014900001C06CE2C8010E94EE04DC24D3CF6DE7EA
:1014A000A6CF50E040E0E114F10441F0F7010190D3
:1014B0000020E9F73197AF014E195F09B701C80164
:1014C0000E945007D80112968D919C9196CFF701FA
:1014D0006081718150E040E06115710581F3FB018D
:1014E00001900020E9F73197AF01461B570BE7CF7A
:1014F000ED91FC91438150E0BF016C5F7F4F72CF53
:101500004D915D916D917C9163CD8C9166E571E01B
:101510008111A9CD6BE571E0A6CDAF92BF92CF92BC
:10152000DF92EF92FF920F931F93CF93DF938C0183
:10153000FC0110820E94B903D12CC12CA12CE12CFA
:10154000D0E0B12CF12C8EEE92E00E942404892B85
:1015500009F4A3C088ECC816D10409F4A9C08EEE22
:1015600092E00E940204C82FFF2009F465C0B11068
:101570001CC0D1115BC0803A41F4F8011082BF2C2D
:10158000D1E0FFEFCF1ADF0ADECF81ED93E00E94BA
:10159000B3046C2F70E090E080E040E10E949C0674
:1015A00084E391E00E948106ECCFD13009F440C081
:1015B000D23009F43FC08E2D90E00396D81719065B
:1015C00079F5C13A31F082EC93E00E948E06FB2C53
:1015D000D8CFF801C19181E08E1520F49191C927EF
:1015E0008F5FFACFCA1509F448C089EA93E00E94D8
:1015F000B3046C2F70E090E080E04AE00E949C060B
:1016000081E691E00E941A076A2D70E090E080E088
:101610004AE00E949C0684E391E00E948106D7CFB5
:10162000EDEFED0FE00FF12FF11DC083DF5FA9CFCC
:10163000E82EFCCFA82EFACF8A30E1F180EE8C0F95
:101640008F3508F09ECFF80101900020E9F731971F
:10165000C083118244E050E06CE671E0C8010E9452
:101660001A1DFF24F394892B09F0F12C61E070E03E
:1016700080E090E00E94870384CF82E080938B0417
:10168000E0928C0447E050E061E771E0C8010E94FD
:101690001A1D892B11F4F8011082DF91CF911F914F
:1016A0000F91FF90EF90DF90CF90BF90AF90089593
:1016B000F110E3CFC8010E94080781E080938B04FA
:1016C000E1CF4F925F926F927F928F929F92AF92F3
:1016D000BF92CF92DF92EF92FF920F931F93CF931F
:1016E000DF937C016B018A01D22FC3E08EEE92E082
:1016F0000E94CE0484EA93E00E94B304C7010E94D2
:101700001A07C6010E94080780EA93E00E94B3040A
:10171000DD2309F454C00E94B9034B015C010E940F
:10172000B903681979098A099B094090040150900E
:101730000501609006017090070164157505860526
:101740009705A8F583EC93E00E948D0A44E050E0F1
:1017500069E771E083EC93E00E941A1D892BF9F68A
:101760008BE993E00E948E0665E070E083EC93E0E5
:101770000E941C0748E150E063EC73E0C8010E943E
:10178000281DF801108E8EEE92E0DF91CF911F910F
:101790000F91FF90EF90DF90CF90BF90AF909F9010
:1017A0008F907F906F905F904F900C94CE04C150BB
:1017B00009F09CCF84E993E00E948E06FFCFDF9171
:1017C000CF911F910F91FF90EF90DF90CF90BF903E
:1017D000AF909F908F907F906F905F904F90089503
:1017E000CF93DF93CDB7DEB769970FB6F894DEBF1E
:1017F0000FBECDBF242FAE014F5F5F4F0E94610B24
:1018000069960FB6F894DEBF0FBECDBFDF91CF91C2
:101810000895FC0180819181009711F00C94D117FB
:1018200060E070E0CB0108950F931F93CF93DF9397
:101830008C01EB01FC01808191810097E1F06881CE
:10184000798161157105A9F0428153812C813D8117
:101850004217530770F00E94131D8C819D81F8017F
:10186000958384831D821C82DF91CF911F910F91FC
:1018700008950E94C41B88819981F8019183808317
:101880008A819B81938382838C819D8195838483CC
:10189000198218821B821A82E5CFFC018081918116
:1018A000009711F00C94C41B0895CB010C94C41B39
:1018B000CF93DF93DC0114962D913C911597232B48
:1018C00079F0FB01CD91DC9160817181CE010E94A4
:1018D000371D009729F08C1B9D0BDF91CF91089548
:1018E0008FEF9FEFFACFEF92FF920F931F93CF935B
:1018F000DF93EC017B018A0188819981009729F0AF
:101900002A813B812417350788F4B8016F5F7F4F28
:101910000E944D1C009791F0998388831B830A8352
:101920002C813D81232B11F4FC0110821D830C833B
:10193000B701888199810E94131D0CC0888199810B
:10194000009711F00E94C41B198218821D821C820C
:101950001B821A82CE01DF91CF911F910F91FF90D0
:10196000EF900895FC011182108213821282158279
:101970001482FB0101900020E9F73197AF01461B6B
:10198000570B0C94730CAF92BF92CF92DF92EF92F1
:10199000FF920F931F93CF93DF93EC016B015A01DA
:1019A00079012417350720F48B2D5901E42EF82EE8
:1019B00069E471E0CE010E94B20CD60114960D913B
:1019C0001C91A016B10628F5E016F10608F487016F
:1019D000D601ED91FC911197E00FF11FF08010827C
:1019E0006D917C916A0D7B1D61157105F1F0FB0114
:1019F00001900020E9F73197AF01461B570BCE014C
:101A00000E94730CF60180819181080F191FD80183
:101A1000FC92CE01DF91CF911F910F91FF90EF903B
:101A2000DF90CF90BF90AF90089588819981009703
:101A300011F00E94C41B198218821D821C821B8215
:101A40001A82E0CFCB01BA010C944D1CCB010C944F
:101A5000281BCF92DF92EF92FF920F931F9364E0C7
:101A600070E080E090E00E94870361E08AE00E94DD
:101A7000BC0260E08AE00E948E0283E090E0019761
:101A8000F1F761E08AE00E948E0283E290E0019724
:101A9000F1F760E08AE00E948E0260E08AE00E9436
:101AA000BC02E7EFF3E06491E5E1F4E0E491F0E0FB
:101AB000EE0FFF1FEA5BFC4F8591949100E516E461
:101AC00020E030E0462F0E94A10F611571058105CD
:101AD000910529F06F5F7F4F8F4F9F4F9F700E943E
:101AE0003C1826E933E44BE85CE30E949D186B0147
:101AF0007C0120E030E046E953E40E94021B181606
:101B00004CF020E030E0A901C701B6010E9437186F
:101B1000811106C0C12CD12C80E8E82E8FEBF82E65
:101B2000C701B6011F910F91FF90EF90DF90CF900A
:101B30000895BF92CF92DF92EF92FF920F931F937F
:101B4000CF93DF93CDB7DEB72F970FB6F894DEBFF4
:101B50000FBECDBF8EE791E00E941A0702EC13E0A2
:101B6000C801825C93400F5F1F4F20918C0428179F
:101B7000190671F06CF0D8016C9170E090E080E093
:101B800040E10E949C068AE691E00E941A07E8CF95
:101B90008AE691E00E94080790E080E0FE0131961D
:101BA0007F0123E0D22ECC24C39432E0B32E2091C7
:101BB0008C042817190609F00CF492C08C010F5FF1
:101BC0001F4FFC01EE53FC4F2181233009F448C024
:101BD00030F42130F9F0223079F18C013EC024300C
:101BE00009F448C02530C9F7D801AE53BC4F11964F
:101BF0003C9123818C010D5F1F4FF801EE53FC4F88
:101C00008181809301013323A1F0211166C0B0923C
:101C10002E0223C0F801EE53FC4F218120932502B0
:101C20008C010E5F1F4FF801EE53FC4F81818093B2
:101C30002602D0922E0211C098012E533C4F8C01E7
:101C40000D5F1F4FC8018E539C4FDC0111964C91C4
:101C50006381F90181810E949A05C8010196A7CF8D
:101C6000F801EE53FC4F81818D3808F08CE80E941A
:101C70004303F3CFF801EE53FC4F8181813029F506
:101C80001B861A861D861C861F861E864AE0B701A3
:101C900085E090E00E940D18F70101900020E9F71F
:101CA0003197AF014E195F09B701CE010A960E9424
:101CB000730C6A857B8540E089E891E00E94F00B17
:101CC000CE010A960E944D0CC8CF40E06FE471E04F
:101CD00089E891E00E94F00BC0CFC0922E02BDCFE8
:101CE0002F960FB6F894DEBF0FBECDBFDF91CF9118
:101CF0001F910F91FF90EF90DF90CF90BF900895CC
:101D00001F920F920FB60F9211242F933F938F9330
:101D10009F93AF93BF938091310290913202A09133
:101D20003302B09134023091300223E0230F2D377B
:101D300058F50196A11DB11D209330028093310208
:101D400090933202A0933302B09334028091350213
:101D500090913602A0913702B09138020196A11DF0
:101D6000B11D8093350290933602A0933702B09351
:101D70003802BF91AF919F918F913F912F910F901A
:101D80000FBE0F901F90189526E8230F0296A11DF5
:101D9000B11DD2CF1F920F920FB60F9211242F9325
:101DA0003F934F935F936F937F938F939F93AF93E3
:101DB000BF93EF93FF938EEE92E00E944404FF9155
:101DC000EF91BF91AF919F918F917F916F915F91B3
:101DD0004F913F912F910F900FBE0F901F9018952C
:101DE0001F920F920FB60F9211242F938F939F93F0
:101DF000EF93FF93E091FE02F091FF028081E0916A
:101E00000403F091050382FD1BC0908180910703BC
:101E10008F5F8F7320910803821741F0E0910703D1
:101E2000F0E0E251FD4F958F80930703FF91EF9112
:101E30009F918F912F910F900FBE0F901F9018952B
:101E40008081F4CF1F920F920FB60F9211242F931F
:101E50003F934F936F937F938F939F93AF93BF93D2
:101E6000EF93FF93809108018F5F809308018111A8
:101E700038C0EAE3F2E047818581411103C09085D3
:101E80009923E9F090E03681232F30E0BC01621BFA
:101E9000730B161617064CF4442389F0240F311DDA
:101EA0002817390764F4C9010AC0672B41F040853F
:101EB000442329F0241B310982179307A4F3868356
:101EC0008681882349F09181A281B3818481911117
:101ED00031C09C91892B8C93399682E0EE3EF807B5
:101EE00051F6EAE3F2E0808187FD0FC0809108019E
:101EF000968198130AC0A281B38184819181911146
:101F00001DC09C91809589238C93399682E0EE3E8A
:101F1000F80749F7FF91EF91BF91AF919F918F9192
:101F20007F916F914F913F912F910F900FBE0F9026
:101F30001F9018959C9180958923CDCF9C91892BDA
:101F4000E3CFCF92DF92EF92FF920F931F93E82F90
:101F5000F92F05C0015011092109310961F1908162
:101F600096239417B9F305C00150110921093109CD
:101F700011F1908196239413F7CFC12CD12CE12C31
:101F8000F12C0AC08FEFC81AD80AE80AF80A0C1513
:101F90001D052E053F0579F080818623841791F376
:101FA0006C2D7D2D8E2D9F2D1F910F91FF90EF9009
:101FB000DF90CF90089560E070E080E090E01F91A6
:101FC0000F91FF90EF90DF90CF900895EEEEF2E04A
:101FD0001382128288EE93E0A0E0B0E084839583C0
:101FE000A683B78386E291E09183808385EC90E0BD
:101FF0009587848784EC90E09787868780EC90E0D3
:10200000918B808B81EC90E0938B828B82EC90E0C3
:10201000958B848B86EC90E0978B868B118E128E3D
:10202000138E148E0E94B90360938B0370938C03FC
:1020300080938D0390938E030E94B9031092C20384
:1020400081E080938B0410928C0429E031E030937E
:102050008E0420938D0410928F041092910410929C
:10206000900422E934E03093A3042093A204109258
:10207000A40494E09093A5049FEF9093A60410927B
:10208000AB049093AC04EDEAF4E090E1DF011D9223
:102090009A95E9F71092BD048093BE046EE871E052
:1020A00088EA93E00E94131D6EE871E08FE893E0E8
:1020B0000E94131D1092C1030895CF93DF93CDB7F3
:1020C000DEB7C35FD1090FB6F894DEBF0FBECDBF38
:1020D000789484B5826084BD84B5816084BD85B503
:1020E000826085BD85B5816085BD80916E0081600F
:1020F00080936E00109281008091810082608093B5
:1021000081008091810081608093810080918000B6
:102110008160809380008091B10084608093B100E1
:102120008091B00081608093B00080917A008460DB
:1021300080937A0080917A00826080937A00809107
:102140007A00816080937A0080917A008068809321
:102150007A001092C1000E94B9031B01E091FE02B7
:10216000F091FF0212E01083E091FA02F091FB027D
:102170001082E091FC02F091FD0280E180831092D8
:102180000603E0910203F091030386E08083E0916F
:102190000003F0910103808180618083E09100035E
:1021A000F0910103808188608083E0910003F091C9
:1021B0000103808180688083E0910003F091010336
:1021C00080818F7D808388E991E00E941A078BEAE5
:1021D00091E00E9408078DEE92E00E948E0681E059
:1021E00087BB1093B1001093B00082E88093B300D6
:1021F00010937000EAE3F2E08FEF80831182138284
:10220000128217821086399622E0EE3EF207A9F775
:1022100010923902CE0101966C015E0199ECA90E73
:10222000B11C4E01E4E08E0E911CFC2CED2C8501BE
:1022300040901501509016016090170149825A8212
:102240006B8260E0F60181916F010E94ED02F8015E
:1022500040825182628244E650E064E670E0F5011B
:1022600081915F010E946405C814D90439F740E0E8
:1022700065EA8FEF0E949A05CF2CDE2C58014E01A3
:10228000F5E08F0E911C409011015090120160906A
:1022900013017090140149825A826B827C8260E043
:1022A000F60181916F010E94ED02F8014082518296
:1022B0006282738244E650E064E670E0F501819149
:1022C0005F010E9464058C149D0429F760E088E09A
:1022D0000E94BC0260E087E00E94BC0260E081E1F5
:1022E0000E94BC0286E08093C10360E00E94ED0280
:1022F00050E040E070E060E08091C1030E9464051E
:102300008AE50E9443031092BE0488EB9BE0A0E0A4
:10231000B0E08093040190930501A0930601B0936F
:10232000070121E04F2D5E2D69E471E081EB91E022
:102330000E94610B4FE050E06F2D7E2D8DEA94E0FE
:102340000E94281D8EE591E00E94B3048F2D9E2DE2
:102350000E9408076F2D7E2DCE0182519F4F0E9453
:10236000B20C69E471E0CE0188519F4F0E94B20C1B
:1023700088E690E00E94B304CE50DF4F4881598137
:10238000C25FD040C251DF4F68817981CE5ED040BC
:102390008EEE92E00E94C60384E391E00E948106E3
:1023A00067EB71E0C8010E94B20CB801CE01825106
:1023B0009F4F0E94580C9C0150E040E0BE016251CA
:1023C0007F4FCE018E519F4F0E94C30CCE018E5184
:1023D0009F4F0E94090C2B01CE018E519F4F0E94EE
:1023E0004D0CC8010E944D0CCE50DF4FC880D980E3
:1023F000C25FD04067EB71E0C8010E94B20CB80127
:10240000CE0182519F4F0E94580CAC014F5F5F4F2D
:102410009601BE0162517F4FCE018E519F4F0E94A7
:10242000C30CBE016E517F4FCE0188519F4F0E9459
:10243000140CCE018E519F4F0E944D0CC8010E947A
:102440004D0C67EB71E0C8010E94B20CB801CE01DF
:1024500088519F4F0E94580C9C0150E040E0BE0103
:1024600068517F4FCE018E519F4F0E94C30CCE0109
:102470008E519F4F0E94090C6B01CE018E519F4FD0
:102480000E944D0CC8010E944D0CC451DF4FA88022
:10249000B980CC5ED04067EB71E0C8010E94B20CFD
:1024A000B801CE0188519F4F0E94580CAC014F5F7C
:1024B0005F4F9501BE0168517F4FCE018E519F4FF6
:1024C0000E94C30CBE016E517F4FCE0188519F4FB9
:1024D0000E94140CCE018E519F4F0E944D0CC801DA
:1024E0000E944D0C67EB71E0C8010E94B20CB8016C
:1024F000CE0188519F4F0E94580C9C0150E040E053
:10250000BE0168517F4FCE018E519F4F0E94C30C78
:10251000CE018E519F4F0E94090C972ECE018E51F5
:102520009F4F0E944D0CC8010E944D0C14141504BD
:102530000CF094C0F4E0CF16D1040CF48FC090944A
:10254000991C9924991CCE0188519F4F0E944D0CD3
:10255000CE0182519F4F0E944D0C911081C080E2AC
:1025600091E00E94B30481E090E00E9401078EE1B7
:1025700091E00E94B30484E090E00E9401078CE1A6
:1025800091E00E94B3044AE060E070E0CB010E9459
:102590009C0684E391E00E9481068BEF90E00E940C
:1025A0008E0689E99DE0909328028093270280910E
:1025B000BD048823E1F184E391E00E9481068AEB67
:1025C00092E00E948E0684E992E00E94B3048DEAB4
:1025D00094E00E9408078EE592E00E948E0682E455
:1025E00092E00E948E068CE192E00E94B3048EE895
:1025F00091E00E941A0788E192E00E94B30483EC04
:1026000091E00E941A0786E192E00E948E0684EE15
:1026100091E00E948E0687EC91E00E948E068FEA80
:1026200091E00E948E068CE791E00E948E064101A7
:10263000330CAA08BB080E94B903681979098A09F2
:102640009B09643F71408105910508F053C161E029
:1026500070E080E090E00E948703EDCF912C73CF73
:102660006F2D7E2DCE0182519F4F0E94B20C67EBE1
:1026700071E0C8010E94B20CB801CE0182519F4F97
:102680000E94580C6C01C8010E944D0CD7FC59C027
:10269000960150E040E0BE0162517F4FC8010E94A8
:1026A000C30CC8010E94090C5B01C8010E944D0CBB
:1026B000CE50DF4F28813981C25FD040A6014F5FE5
:1026C0005F4FBE0162517F4FCE0188519F4F0E94E4
:1026D000C30C67EB71E0C8010E94B20CB801CE01D7
:1026E00088519F4F0E94580C9C0150E040E0BE0171
:1026F00068517F4FCE018E519F4F0E94C30CCE0177
:102700008E519F4F0E94090C6B01CE018E519F4F3D
:102710000E944D0CC8010E944D0C9924939421E015
:10272000A216B10429F01A141B0434F4912C04C02D
:1027300085E0C816D104D4F7CE0188519F4F0E947E
:102740004D0CCE0182519F4F0E944D0C992009F4EF
:1027500067C081E08093BD0488EE93E0A0E0B0E024
:102760008093040190930501A0930601B0930701A3
:1027700041E068EA73E089EB91E00E94F00B41E0F0
:102780006FE873E08EEB91E00E94F00B41E06EE8A1
:1027900071E084EE91E00E94F00B41E063EC71E0A7
:1027A0008BEE91E00E94F00B41E06FEA71E08CEC5F
:1027B00091E00E94F00B41E061ED71E087ED91E066
:1027C0000E94F00B88E893E1A0E0B0E08093040160
:1027D00090930501A0930601B093070121E0A801A1
:1027E00069E471E08CED91E00E94610B64E170E0BE
:1027F00080E090E00E94870389EC90E00E94B3049F
:10280000C8010E94080784E690E0A0E0B0E0809351
:10281000040190930501A0930601B0930701C1CE76
:1028200088EE93E0A0E0B0E080930401909305016E
:10283000A0930601B093070168EE73E080E090E09A
:102840000E94870341E068EA73E089EB91E00E940F
:10285000F00B41E06FE873E08EEB91E00E94F00B2B
:1028600041E06EE871E082EE91E00E94F00B41E001
:1028700063EC71E089EE91E00E94F00B41E061EDC4
:1028800071E087ED91E00E94F00B80E197E2A0E01B
:10289000B0E08093040190930501A0930601B093EA
:1028A000070121E0A80169E471E08CED91E00E944C
:1028B000610B64E170E080E090E00E9487038EEAA3
:1028C00090E00E94B304C8010E941A078CEA90E0CD
:1028D0000E94B30481ED91E00E9408078AE890E02D
:1028E0000E94B304C8010E941A078FE790E00E947B
:1028F0008E0689CF86E791E00E948E064AE06FEF50
:102900008AE00E949A055E01FBE0AF0EB11C6DE803
:10291000862E64E0962E7724739453E8652E1091EA
:102920002F0280910301811761F08AE293E00E94F7
:10293000B30410930301112309F46BC0113009F49F
:1029400088C080912F02882309F490C0813009F457
:10295000D3C083EC93E00E948D0A8091C303811160
:1029600005C080918B04882309F446C046E050E0FE
:102970006FEE71E083EC93E00E941A1D892B09F041
:1029800058C21092C2038091BE04882399F10E941C
:10299000B90300918B0310918C0320918D0330912A
:1029A0008E03601B710B820B930B6D3371058105D8
:1029B000910500F184E193E00E94B3048EEE92E071
:1029C0009A8389831C821B829E828D826F2D7E2D2D
:1029D00087EA94E00E948B0785E391E00E941A0742
:1029E0000E94B90360938B0370938C0380938D03D3
:1029F00090938E0310928B04E0E0F0E0EF2B09F44B
:102A00008ECF0E943004882309F485CF0E940000F5
:102A100082CF85E293E00E948E068091BD0402E0A1
:102A200012E02FEF30E0811104C00AE01FEF2AE02E
:102A300030E09927832F722F612F402F822F0E9421
:102A40009A0560E080E00E94CB058AE50E9443037E
:102A500078CF81E293E00E948E0623E020932E023D
:102A600045EA6AE08FEF0E949A056BCF0E94B90396
:102A700000912A0210912B0220912C0230912D02FC
:102A8000601B710B820B930B653F714081059105B3
:102A900078F0809129028725809329020E94B9034A
:102AA00060932A0270932B0280932C0290932D0244
:102AB000809129028823E1F08091BD0402E012E0B8
:102AC0002FEF30E0811104C00AE01FEF2AE030E070
:102AD0009927832F722F612F402F822F0E949A05F2
:102AE0008091C203882309F434CF70922F0231CF32
:102AF00040E060E080E0F2CFF0EAF9831A821B82C6
:102B000021E82C830E94290D20E030E040E251E4CE
:102B10000E949D180E94D31A7D836E8382E88F8362
:102B200088E00E9465028C0187E00E946502AC018A
:102B300021E030E0012B11F030E020E0220F331FC4
:102B400091E0452B09F090E0922B9887698683E409
:102B500080937C0080917A00806480937A008091D9
:102B60007A0086FDFCCF6091780070917900072E85
:102B7000000C880B990B0E943E1820E030E040E8E2
:102B80005AE30E949D182BE33FED47EA50E40E9470
:102B90009D189B01AC010E94EE1920E030E048EC4A
:102BA00052E40E949D180E94CC1A072E000C880B3C
:102BB000990B0E943E1820E030E048EC52E40E945D
:102BC0005A1A20E030E040EC50E40E94ED1920E079
:102BD00030E048EC52E40E949D181B012C0120E0DB
:102BE00030E0A9010E94021B20E030E040E05FE3FA
:102BF00087FD74C0C201B1010E94EE190E94CC1A77
:102C00006A8781EA8B8787E08A83EF2DFE2D80E03B
:102C100091918927AE16BF06D9F78B838CEF92E08E
:102C20000E94B3044BE050E06F2D7E2D8EEE92E0BB
:102C30000E94C60385E391E00E941A078091C203B7
:102C4000811102C010922F021091020180912E0278
:102C50001817F9F086E093E00E94B304612F70E04A
:102C600090E080E04AE00E949C0681E093E00E94B0
:102C7000B30460912E0270E090E080E04AE00E9490
:102C80009C0684E391E00E94810680912E0280934D
:102C9000020180912E02823009F467C0833009F46A
:102CA000C3C0813009F055CE0E94290D1B012C01B3
:102CB00020E030E040E850E40E94371887FF13C05E
:102CC00020E030E0A901C201B1010E94021B1816E8
:102CD00054F460E080E00E94CB053BCEC201B1011C
:102CE0000E94ED198BCF20E030E040E251E4C201B8
:102CF000B1010E94371887FF0CC020E030E0A90125
:102D0000C201B1010E94021B18161CF46EE18EE193
:102D1000E2CF20E030E040EA51E4C201B1010E947C
:102D2000371887FF0DC020E030E0A901C201B101D2
:102D30000E94021B181624F480910101682FCBCF4A
:102D400088E00E946502892B29F480910101682F97
:102D50008195C1CF87E00E946502892B09F0B9CF28
:102D600080910101682F6195B6CF88E00E946502CD
:102D70006C0187E00E9465028C010E94290D1B01F5
:102D80002C0120E030E040EA51E40E94021B1816BA
:102D90004CF020E030E0A901C201B1010E943718D7
:102DA00087FF07C0CD28D9F0012B39F0709224029B
:102DB000C3CFCD28A1F0012BA1F480910001813077
:102DC00029F080912402882309F4C3CD8091010168
:102DD000682F81950E94CB05709200010FC0012BD6
:102DE00081F480910101982F919520910001692F24
:102DF000213011F4682F892F0E94CB0510922402F4
:102E0000A8CD809100018F3F29F080912402882372
:102E100009F49FCD80910101682F61950E94CB0537
:102E20008FEF80930001EACF609126028091250206
:102E300052CF4BE050E066EF71E083EC93E00E94EC
:102E40001A1D892B19F47092C2039DCD4EE050E0FB
:102E500062E072E083EC93E00E941A1D892B09F472
:102E600090CD49E050E061E172E083EC93E00E9494
:102E70001A1D892B51F48091C203882309F481CD56
:102E800088E193E00E948E067CCD43E050E06BE148
:102E900072E083EC93E00E941A1D892B89F48FE184
:102EA00092E00E94080783EC93E00E94080770926A
:102EB000C20363E070E083EC93E00E941C0763CDE3
:102EC00080918B04823009F05ECD7092C203E09154
:102ED0002702F0912802309709F455CD099553CD7A
:102EE000FF920F931F93CF93DF93C0918D04D091E6
:102EF0008E0460919004709191046115710579F0D0
:102F0000DB018D919C919093910480939004E881D2
:102F1000F9810280F381E02DCE010995EACF00917D
:102F20008D0410918E04F12C6091A2047091A30481
:102F30008091A404F816C8F4B4E0FB9EE0011124CB
:102F4000C60FD71F6A817B816115710541F0D801D9
:102F5000ED91FC910280F381E02DC80109951B825F
:102F60001A8218821982F394DFCF1092A4048FEF93
:102F70008093A604B4E062397B0769F0D801ED9133
:102F8000FC910280F381E02DC801DF91CF911F9168
:102F90000F91FF900994DF91CF911F910F91FF90B6
:102FA00008951F93FC0199278827BC01E89411918B
:102FB0001032E9F3193010F01E30C8F31B3251F013
:102FC0001D3249F4689406C00E94F817610F711D04
:102FD000811D911D119110531A30B0F33EF490955C
:102FE0008095709561957F4F8F4F9F4F1F910895EA
:102FF000592F482F372F262F660F771F881F991FAD
:10300000660F771F881F991F620F731F841F951FFC
:10301000660F771F881F991F0895BB27FB0155274F
:10302000AA27880F991FAA1FA41710F0A41B839525
:103030005051B9F7A05DAA3308F0A95DA19300979C
:1030400079F7B111B1931192CB010C942718DC01DF
:10305000FC01672F71917723E1F7329704C07C91CF
:103060006D9370836291AE17BF07C8F308950E94F5
:10307000791808F481E00895E89409C097FB3EF4BC
:1030800090958095709561957F4F8F4F9F4F9923B5
:10309000A9F0F92F96E9BB279395F6958795779533
:1030A0006795B795F111F8CFFAF4BB0F11F460FFF3
:1030B0001BC06F5F7F4F8F4F9F4F16C0882311F04B
:1030C00096E911C0772321F09EE8872F762F05C05F
:1030D000662371F096E8862F70E060E02AF09A95FA
:1030E000660F771F881FDAF7880F9695879597F9EF
:1030F0000895990F0008550FAA0BE0E8FEEF161689
:103100001706E807F907C0F012161306E407F507DB
:1031100098F0621B730B840B950B39F40A2661F04F
:10312000232B242B252B21F408950A2609F4A140F2
:10313000A6958FEF811D811D08950E94B0180C94F3
:1031400021190E94131938F00E941A1920F09523B2
:1031500011F00C940A190C94101911240C9455199F
:103160000E94321970F3959FC1F3950F50E0551FDF
:10317000629FF001729FBB27F00DB11D639FAA27CC
:10318000F00DB11DAA1F649F6627B00DA11D661F1B
:10319000829F2227B00DA11D621F739FB00DA11D3C
:1031A000621F839FA00D611D221F749F3327A00DF6
:1031B000611D231F849F600D211D822F762F6A2F92
:1031C00011249F5750409AF0F1F088234AF0EE0FF7
:1031D000FF1FBB1F661F771F881F91505040A9F724
:1031E0009E3F510580F00C940A190C9455195F3FCD
:1031F000E4F3983ED4F3869577956795B795F79560
:10320000E7959F5FC1F7FE2B880F911D96958795D7
:1032100097F9089597F99F6780E870E060E0089556
:103220009FEF80EC089500240A94161617061806DE
:103230000906089500240A941216130614060506BA
:103240000895092E0394000C11F4882352F0BB0F4B
:1032500040F4BF2B11F460FF04C06F5F7F4F8F4FAE
:103260009F4F089557FD9058440F551F59F05F3FE9
:1032700071F04795880F97FB991F61F09F3F79F098
:1032800087950895121613061406551FF2CF46951A
:10329000F1DF08C0161617061806991FF1CF86959C
:1032A0007105610508940895E894BB276627772780
:1032B000CB0197F90895052E97FB1EF400940E9408
:1032C000721957FD07D00E94BC1907FC03D04EF4B9
:1032D0000C94721950954095309521953F4F4F4F62
:1032E0005F4F089590958095709561957F4F8F4FB2
:1032F0009F4F08950E94DE19A59F900DB49F900DD9
:10330000A49F800D911D112408952F923F924F92FA
:103310005F926F927F928F929F92AF92BF92CF9265
:10332000DF92EF92FF920F931F93CF93DF93CDB76E
:10333000DEB7CA1BDB0B0FB6F894DEBF0FBECDBFE6
:1033400009942A88398848885F846E847D848C84B7
:103350009B84AA84B984C884DF80EE80FD800C81C0
:103360001B81AA81B981CE0FD11D0FB6F894DEBFA3
:103370000FBECDBFED010895A1E21A2EAA1BBB1B03
:10338000FD010DC0AA1FBB1FEE1FFF1FA217B30731
:10339000E407F50720F0A21BB30BE40BF50B661F47
:1033A000771F881F991F1A9469F76095709580950B
:1033B00090959B01AC01BD01CF010895A29FB00182
:1033C000B39FC001A39F700D811D1124911DB29F59
:1033D000700D811D1124911D08955058BB27AA27F7
:1033E0000E94051A0C9421190E94131938F00E94AA
:1033F0001A1920F039F49F3F19F426F40C9410198F
:103400000EF4E095E7FB0C940A19E92F0E9432199B
:1034100058F3BA17620773078407950720F079F409
:10342000A6F50C9454190EF4E0950B2EBA2FA02D8E
:103430000B01B90190010C01CA01A0011124FF2761
:10344000591B99F0593F50F4503E68F11A16F0405C
:10345000A22F232F342F4427585FF3CF469537955B
:103460002795A795F0405395C9F77EF41F16BA0B20
:10347000620B730B840BBAF09150A1F0FF0FBB1FCE
:10348000661F771F881FC2F70EC0BA0F621F731F17
:10349000841F48F4879577956795B795F7959E3F74
:1034A00008F0B0CF9395880F08F09927EE0F979505
:1034B000879508950E946E1A0C9421190E941A197A
:1034C00058F00E94131940F029F45F3F29F00C9442
:1034D0000A1951110C9455190C9410190E943219A3
:1034E00068F39923B1F3552391F3951B550BBB2733
:1034F000AA2762177307840738F09F5F5F4F220F78
:10350000331F441FAA1FA9F335D00E2E3AF0E0E86E
:1035100032D091505040E695001CCAF72BD0FE2FB8
:1035200029D0660F771F881FBB1F2617370748074C
:10353000AB07B0E809F0BB0B802DBF01FF27935804
:103540005F4F3AF09E3F510578F00C940A190C94A5
:1035500055195F3FE4F3983ED4F3869577956795C8
:10356000B795F7959F5FC9F7880F911D9695879539
:1035700097F90895E1E0660F771F881FBB1F621758
:1035800073078407BA0720F0621B730B840BBA0B16
:10359000EE1F88F7E09508950E94D31A6894B11140
:1035A0000C94551908950E943A1988F09F5798F085
:1035B000B92F9927B751B0F0E1F0660F771F881F38
:1035C000991F1AF0BA95C9F714C0B13091F00E9452
:1035D0005419B1E008950C945419672F782F882757
:1035E000B85F39F0B93FCCF3869577956795B39579
:1035F000D9F73EF490958095709561957F4F8F4FE8
:103600009F4F08950E94791808F48FEF0895AA1B20
:10361000BB1B51E107C0AA1FBB1FA617B70710F0BD
:10362000A61BB70B881F991F5A95A9F780959095EF
:10363000BC01CD0108950E94DE19B7FF0895821BD9
:10364000930B0895EE0FFF1F0590F491E02D099460
:103650000F931F93CF93DF938230910510F482E094
:1036600090E0E091C104F091C20430E020E0B0E0CD
:10367000A0E0309799F42115310509F44AC0281BC0
:10368000390B24303105D8F58A819B81611571058C
:1036900089F1FB0193838283FE0111C04081518136
:1036A0000281138148175907E0F04817590799F428
:1036B000109761F012960C93129713961C93329602
:1036C000CF01DF91CF911F910F9108950093C10415
:1036D0001093C204F4CF2115310551F0421753075E
:1036E00038F0A901DB019A01BD01DF01F801C1CF6A
:1036F000EF01F9CF9093C2048093C104CDCFFE01B6
:10370000E20FF31F8193919322503109398328836B
:10371000D7CF2091BF043091C004232B41F42091D6
:103720000D0130910E013093C0042093BF0420910D
:103730000B0130910C012115310541F42DB73EB735
:1037400040910F0150911001241B350BE091BF04F3
:10375000F091C004E217F307A0F42E1B3F0B2817CB
:10376000390778F0AC014E5F5F4F2417350748F0FA
:103770004E0F5F1F5093C0044093BF0481939193F9
:103780009FCFF0E0E0E09CCFCF93DF930097E9F08C
:10379000FC01329713821282A091C104B091C2043D
:1037A000ED0130E020E01097A1F420813181820FFB
:1037B000931F2091BF043091C0042817390709F0E6
:1037C00061C0F093C004E093BF04DF91CF910895EE
:1037D000EA01CE17DF07E8F54A815B819E014115BA
:1037E0005105B1F7E901FB83EA8349915991C40F6F
:1037F000D51FEC17FD0761F4808191810296840F3B
:10380000951FE90199838883828193819B838A83B1
:10381000F0E0E0E012968D919C9113970097B9F536
:103820002D913C911197CD010296820F931F20910B
:10383000BF043091C0042817390739F6309751F585
:103840001092C2041092C104B093C004A093BF04AC
:10385000BCCFD383C28340815181840F951FC81789
:10386000D90761F44E5F5F4F88819981480F591FD6
:10387000518340838A819B81938382832115310503
:1038800009F0B0CFF093C204E093C1049ECFFD01D4
:10389000DC01C0CF13821282D7CFB0E0A0E0E3E515
:1038A000FCE10C9487198C01009751F4CB010E9424
:1038B000281B8C01C801CDB7DEB7E0E10C94A31939
:1038C000FC01E60FF71F9C0122503109E217F307B4
:1038D00008F49DC0D901CD91DC911197C617D70787
:1038E00098F0C530D10530F3CE01049786179707BD
:1038F00008F3C61BD70B2297C193D1936D937C938A
:10390000CF010E94C41BD6CF5B01AC1ABD0A4C018B
:103910008C0E9D1EA091C104B091C204512C412C6B
:10392000F12CE12C109731F58091BF049091C004E7
:103930008815990509F05CC04616570608F058C06E
:1039400080910B0190910C01009741F48DB79EB7C7
:1039500040910F0150911001841B950BE817F90756
:1039600008F055C0F093C004E093BF04F9017183DF
:103970006083A0CF8D919C91119712966C901297B5
:1039800013967C901397A815B90559F56C0142E080
:10399000C40ED11CCA14DB0420F1AC014A195B0926
:1039A000DA011296159780F0628273825183408308
:1039B000D9016D937C93E114F10471F0D701139652
:1039C000FC93EE93129776CF22968C0F9D1FF901F0
:1039D00091838083F301EFCFF093C204E093C1049D
:1039E00069CF4816590608F42C017D01D3019ACFFE
:1039F000CB010E94281B7C01009749F0AE01B80161
:103A00000E940A1DC8010E94C41B870153CF10E009
:103A100000E050CFFB01DC0102C001900D9241504B
:103A20005040D8F70895FB01DC0101900D92002071
:103A3000E1F70895FB01DC014150504030F08D91D9
:103A40000190801919F40020B9F7881B990B08958B
:103A5000FB01DC014150504048F001900D920020E4
:103A6000C9F701C01D9241505040E0F70895FB0195
:103A700051915523A9F0BF01DC014D91451741112A
:103A8000E1F759F4CD010190002049F04D91401526
:103A90004111C9F3FB014111EFCF81E090E00197A3
:103AA000089512E0C1E1D2E004C0FE010E94221B91
:0C3AB0002196C231D107C9F7F894FFCF6E
:103ABC00FF41FFFF64000000FF1C010000C30480F5
:103ACC0000020304050C0D0B00000000260D550C24
:103ADC00220D000000006604C603F303CE04240488
:103AEC00020416040D0A002F2F272722225C5C6289
:103AFC0008660C6E0A720D7409005C75303030303B
:103B0C00006E756C6C00747275650066616C736523
:103B1C00002C2061637475616C3A20005753422B62
:103B2C00005B43414D5F445D005B4F4B5D006F6E2E
:103B3C00526563656976653A004C414D50004761AA
:103B4C006C6178795256520047616C6178795256A3
:103B5C00522076657273696F6E2000322E302E32D1
:103B6C00005245534554002E004E414D45005459CA
:103B7C005045003132333435363738004D4F4445DB
:103B8C0000333031303200504F52540053544152B4
:103B9C00540041505353494400415050534B005B27
:103BAC00496E69745D005B434F4E4E45435445442A
:103BBC005D005B444953434F4E4E45435445445D71
:103BCC00005B41505053544F505D0057532B0052E3
:043BDC00583A000053
:00000001FF
