:100000000C9440010C9468010C9468010C946801F4
:100010000C9468010C9468010C9468010C942A0EED
:100020000C9468010C9468010C9468010C946801AC
:100030000C9468010C9468010C9468010C9468019C
:100040000C94880D0C9468010C94F80D0C94D20D4E
:100050000C9468010C9468010C9468010C9468017C
:100060000C9468010C946801636865636B4669725F
:100070006D7761726556657273696F6E3A20003AEA
:10008000393030302F6D6A706700566964656F20B3
:1000900073747265616D65722073746172746564E6
:1000A000206F6E20687474703A2F2F003A005765E5
:1000B0006253657276657220737461727465642030
:1000C0006F6E2077733A2F2F0045535033322066DE
:1000D00069726D776172652076657273696F6E20E3
:1000E0006E6F74206D61746368002E002E0045539E
:1000F000503332206669726D776172652076657261
:1001000073696F6E206E6F74206D617463682C204C
:100110006D696E69616C206669726D7761726520C8
:1001200076657273696F6E20697320004553503392
:1001300032206669726D77617265207665727369C7
:100140006F6E20004F6B69652100496E69746961AB
:100150006C7A696E672E2E2E005753422B00202D8D
:100160003E20004D6F6465204368616E67653A20EC
:100170000057532B004150502053544F50004150D2
:10018000500049444C4500537461746520636861B4
:100190006E67656420746F20000000000024002753
:1001A000002A0000000000230026002900000000B3
:1001B0000800020100000304070000000000000026
:1001C00000CDCCCC3D0AD7233C17B7D13877CC2B08
:1001D000329595E6241FB14F0A000020410000C867
:1001E0004200401C4620BCBE4CCA1B0E5AAEC59DE8
:1001F000745B4641494C5D005B4F4B5D002E2E2EDB
:10020000005345542B00636865636B73756D2065FF
:1002100072726F722C206578706563743A20006585
:100220006E642062797465206572726F7200626913
:100230006E617279207374617274206279746520C2
:100240006572726F723A2030780001020408102043
:100250004080010204081020010204081020000060
:100260000000250028002B000404040404040404F6
:10027000020202020202030303030303EE0E5015FF
:1002800011241FBECFEFD8E0DEBFCDBF12E0A0E04B
:10029000B1E0EEE5F6E302C005900D92AE31B10794
:1002A000D9F724E0AEE1B2E001C01D92AC3AB2074A
:1002B000E1F711E0CFE3D1E004C02197FE010E94F5
:1002C0000219CE33D107C9F70E945C0F0C94221B90
:1002D0000C940000833081F028F4813099F0823052
:1002E000A9F008958730A9F08830C9F08430B1F4BE
:1002F000809180008F7D03C0809180008F778093F4
:100300008000089584B58F7784BD089584B58F7D6E
:10031000FBCF8091B0008F778093B00008958091DB
:10032000B0008F7DF9CFCF93DF93282F30E0F90114
:10033000E355FE4F8491F901E65BFD4FD491F9013D
:10034000E859FD4FC491CC23A1F081110E946A01AC
:10035000EC2FF0E0EE0FFF1FED55FE4FA591B4918D
:10036000EC91ED2381E090E009F480E0DF91CF9102
:10037000089580E090E0FACF1F93CF93DF93282F6A
:1003800030E0F901E355FE4F8491F901E65BFD4F42
:10039000D491F901E859FD4FC491CC23A9F0162F4F
:1003A00081110E946A01EC2FF0E0EE0FFF1FE25A6C
:1003B000FD4FA591B4918FB7F894EC91111108C03D
:1003C000D095DE23DC938FBFDF91CF911F910895ED
:1003D000DE2BF8CFCF93DF9390E0FC01E65BFD4F7F
:1003E000249188599D4FFC0184918823D1F090E09D
:1003F000880F991FFC01E756FE4FA591B491FC01AF
:10040000E25AFD4FC591D49161110EC09FB7F89487
:100410008C91E22FE0958E238C932881E223E88350
:100420009FBFDF91CF9108958FB7F894EC91E22BA5
:10043000EC938FBFF6CFCF93E4E3F2E0AFEF90E021
:10044000208187FF05C027FF47C0AF3F41F406C0AA
:10045000821709F441C0AF3F11F427FDA92F9F5F18
:100460003996943169F787FD3AC0AF3F09F437C038
:10047000C82F89E0A802D0011124AC5CBD4FCC93F9
:100480002091330211962C9311978C2F0C2E000C77
:10049000990BFC01E859FD4FE491F0E0EE0FFF1FCE
:1004A000E25AFD4F4591549113965C934E931297E7
:1004B000FC01E65BFD4FE4911496EC9314971596BE
:1004C0006C9360E0211161E08C2F0E94BC0161E01F
:1004D0008C2FCF910C94EA01658387FDBCCFCF911F
:1004E0000895282F30E0A0EDB7E00E94BE1724EB5E
:1004F00030E040E050E00E943B172C503E4F4F4F01
:100500005F4FAFEFB0E00E945A172AE131E440E0BC
:1005100050E00E943B17622F8091BB030C941B029A
:100520003FB7F89480912F0290913002A091310250
:10053000B091320226B5A89B05C02F3F19F0019655
:10054000A11DB11D3FBFBA2FA92F982F8827BC012D
:10055000CD01620F711D811D911D42E0660F771F55
:10056000881F991F4A95D1F708958F929F92AF9255
:10057000BF92CF92DF92EF92FF924B015C010E94FB
:1005800090026B017C010E9490026C197D098E091A
:100590009F09683E734081059105A8F321E0821A06
:1005A0009108A108B10888EEC80E83E0D81EE11CAE
:1005B000F11C81149104A104B10429F7FF90EF907C
:1005C000DF90CF90BF90AF909F908F9008952FB7FE
:1005D000F89460912B0270912C0280912D029091E1
:1005E0002E022FBF08950895AF92BF92CF92DF924F
:1005F000EF92FF920F931F93CF93DF936C017B01D8
:100600008B01040F151FEB015E01AE18BF08C01768
:10061000D10759F06991D601ED91FC910190F081DB
:10062000E02DC6010995892B79F7C501DF91CF919E
:100630001F910F91FF90EF90DF90CF90BF90AF9000
:100640000895FC01538D448D252F30E0842F90E0D8
:10065000821B930B541710F0CF96089501970895BD
:10066000FC01918D828D981761F0A28DAE0FBF2F86
:10067000B11D5D968C91928D9F5F9F73928F90E0DC
:1006800008958FEF9FEF0895FC01918D828D98174B
:1006900031F0828DE80FF11D858D90E008958FEF88
:1006A0009FEF0895FC01918D228D892F90E0805C51
:1006B0009F4F821B91098F739927089588EE92E0CE
:1006C0000E94520321E0892B09F420E0822F089533
:1006D00080E090E0892B29F00E945E0381110C9448
:1006E00000000895FC01A48DA80FB92FB11DA35AD5
:1006F000BF4F2C91848D90E001968F739927848F42
:10070000A689B7892C93A089B1898C918370806464
:100710008C93938D848D981306C00288F389E02D05
:1007200080818F7D80830895EF92FF920F931F93B6
:10073000CF93DF93EC0181E0888F9B8D8C8D981394
:100740001AC0E889F989808185FF15C09FB7F894A0
:10075000EE89FF896083E889F989808183708064EC
:1007600080839FBF81E090E0DF91CF911F910F9137
:10077000FF90EF900895F62E0B8D10E00F5F1F4F46
:100780000F731127E02E8C8D8E110CC00FB607FC55
:10079000FACFE889F989808185FFF5CFCE010E94E3
:1007A0007203F1CFEB8DEC0FFD2FF11DE35AFF4FDC
:1007B000F0829FB7F8940B8FEA89FB898081806271
:1007C000CFCF0F931F93CF93DF938C01D0E0C0E086
:1007D000F801EC0FFD1F6491662341F088EE92E072
:1007E0000E949403892B11F02196F2CFCE01DF9164
:1007F000CF911F910F910895CF93DF93EC01888DD6
:100800008823B9F0AA89BB89E889F9898C9185FD8B
:1008100003C0808186FD0DC00FB607FCF7CF8C9119
:1008200085FFF2CF808185FFEDCFCE010E9472035C
:10083000E9CFDF91CF910895CF93DF93EC018881C9
:100840009981DC01ED91FC910190F081E02D0995F9
:100850002A813B81820F931F9B838A83DF91CF91F3
:100860000895CF93DF93EC0188819981DC01ED91AC
:10087000FC910280F381E02D09952A813B81820F52
:10088000931F9B838A83DF91CF9108958F929F92CC
:10089000AF92BF92CF92DF92EF92FF920F931F938E
:1008A000CF93DF93CDB7DEB766970FB6F894DEBF70
:1008B0000FBECDBF6C018E01095E1F4F78018AE02B
:1008C000882E912CA12CB12CCB01BA01A501940149
:1008D0000E949C17942F852F605DF80162938F0111
:1008E000A901692F782F411551056105710561F73F
:1008F000A7014E1B5F0BBF01C6010E943104669623
:100900000FB6F894DEBF0FBECDBFDF91CF911F9120
:100910000F91FF90EF90DF90CF90BF90AF909F909E
:100920008F900895EF92FF920F931F93CF93DF93D1
:10093000282FEB018A01E4E3F2E080EFE82E8FE05C
:10094000F82E808127FF0EC087FF0EC0399682E007
:10095000E83EF807B1F7DF91CF911F910F91FF901B
:10096000EF9008952813F2CF60E0209721F0C7019F
:10097000BE010E94E718678360E00115110521F0B0
:10098000C701B8010E94E718608727FDDFCFE3CFDA
:100990001F93CF93DF93182FC42F70E090E080E077
:1009A0000E941E1620E030E040E85EE30E947D16C3
:1009B0000E94AC18D62F6C2F70E090E080E00E946F
:1009C0001E1626E636E646EE5EE30E947D160E947F
:1009D000AC18C62F612F8CE00E941B026D2F8DE09A
:1009E0000E941B026C2F8BE0DF91CF911F910C9422
:1009F0001B022F923F924F925F926F927F928F9243
:100A00009F92AF92BF92CF92DF92EF92FF920F939D
:100A10001F93CF93DF93CDB7DEB764970FB6F894EB
:100A2000DEBF0FBECDBF8D876E875E018DE0A80E45
:100A3000B11C1E019BE0290E311CFE013996FC8B76
:100A4000EB8B7E01FFE0EF0EF11C6E0185E0C80E1E
:100A5000D11CFE0131964F01FA8AE98A40901101BA
:100A6000509012016090130170901401F501A19152
:100A70005F0181E01A160CF080E0F1018083198695
:100A8000F1E0FA87EB89FC898191FC8BEB8B882361
:100A900031F081E01A160CF480E0F1018083A1119D
:100AA00045C0F7011082F10111911F01F701019179
:100AB0007F014D825E826F827886109F602D1124A7
:100AC000F60180810E941B0249825A826B827C82DD
:100AD000F1E01F27109F602D1124F40181810E94F5
:100AE0001B02F2E0CF0ED11C82E0880E911CE98936
:100AF000FA89AE16BF0609F0B9CF64960FB6F8941E
:100B0000DEBF0FBECDBFDF91CF911F910F91FF9040
:100B1000EF90DF90CF90BF90AF909F908F907F909D
:100B20006F905F904F903F902F9008950A2E000C89
:100B3000BB0BB7FF03C0B195A195B10923EE30E01F
:100B40000E94FB1824E630E040E050E00E943B1792
:100B5000245E3F4F4F4F5F4FF7012083A4CFFC012E
:100B600001900020E9F73197AF01481B590BBC01F8
:100B700088EE92E00C94F402CF93DF930E94E1039D
:100B8000EC0184E391E00E94AF058C0F9D1FDF9183
:100B9000CF9108958F929F92AF92BF920F931F9320
:100BA000CF93DF93CDB7DEB7A1970FB6F894DEBF32
:100BB0000FBECDBF19A2423008F44AE08E010F5D8E
:100BC0001F4F842E912CB12CA12CA50194010E94C1
:100BD0009C17E62FB901CA01EA30F4F4E05DD801B0
:100BE000EE938D01232B242B252B79F790E080E0C9
:100BF000109719F0CD010E94AF05A1960FB6F89499
:100C0000DEBF0FBECDBFDF91CF911F910F91BF907F
:100C1000AF909F908F900895E95CE1CFCF92DF92E3
:100C2000EF92FF92CF93DF936B017C016DE288EE30
:100C300092E00E949403EC0166277727CB016C19A0
:100C40007D098E099F094AE00E94CA058C0F9D1FED
:100C5000DF91CF91FF90EF90DF90CF900895BC018E
:100C6000990F880B990B4AE00C94CA05CF93DF9338
:100C7000D0E0C0E0009719F00E94AF05EC0184E3DA
:100C800091E00E94AF058C0F9D1FDF91CF910895D9
:100C90000C94AF050F931F93CF93DF93EB01FC01EF
:100CA00001900020E9F73197E81BF90B8F0111271C
:100CB00070E0A72FB0E0A017B1078CF4AD014C0F86
:100CC0005D1FA80FB91F401751073CF4480F591F6B
:100CD000FA0120812C937F5FECCF1C92FCCFDF9137
:100CE000CF911F910F910895FB0101900020E9F72A
:100CF0003197AF01461B570B0C943104CF92DF9212
:100D0000EF92FF920F931F93CF93DF938C016B01B0
:100D10007A0162E20E941C04E601EC0CFD1CEC1658
:100D2000FD0699F06991E7E3F1E0D480DD20C9F098
:100D3000329683816813F9CF6CE5C8010E941C04C8
:100D40006D2DC8010E941C04EACF62E2C801DF9148
:100D5000CF911F910F91FF90EF90DF90CF900C9467
:100D60001C046111EECF6AE471E0C8010E947406B0
:100D7000D6CF2F923F924F925F926F927F928F9237
:100D80009F92AF92BF92CF92DF92EF92FF920F931A
:100D90001F93CF93DF93CDB7DEB76B970FB6F89461
:100DA000DEBF0FBECDBF7C018B01DC0114968C91A0
:100DB0001497863009F4D7C2E8F4833009F4C6C228
:100DC00048F4823009F49BC261E571E0C8010E94D9
:100DD0007406A6C2843009F4A8C28530A9F7ED9143
:100DE000FC91438150E0BF016C5F7F4FC8010E94BE
:100DF0007E062EC28E3009F455C0E0F48A3009F424
:100E0000ADC28C3009F7CD90DD90ED90FC90B7012C
:100E1000A601F7FE0BC06DE2C8010E941C04442726
:100E20005527BA014C195D096E097F09C8010E9456
:100E300046040EC2803209F427C2803429F66BE5DD
:100E4000C8010E941C04D701FC9096E0D92EBFEF88
:100E5000FB1609F4F9C1F801A481B581EF2DE295E3
:100E6000EF70F4E0EF9FC00111245596ED91FC91D5
:100E7000E80FF91F9F2D9F70E280F3809D9DE00C8D
:100E8000F11C1124B801C7010E94B906D7011596BB
:100E9000FC90BFEFFB1609F4D7C16CE2C8010E94B9
:100EA0001C04D5CFF70180809180A280B380A5017A
:100EB0009401C501B4010E941716882331F061E541
:100EC00071E0C8010E947406C3C120E030E0A901AE
:100ED000C501B4010E941716882371F0A501940181
:100EE000C501B4010E94CE179B01AC01C501B4013C
:100EF0000E941716882319F320E030E0A901C501EC
:100F0000B4010E94171687FF08C06DE2C8010E9455
:100F10001C04B7FAB094B7F8B09420E836E948E179
:100F20005BE4C501B4010E94E21887FD83C0B4E10F
:100F3000CB2ED12C80E2E82EF12C312C212CF60185
:100F4000E752FE4F6591759185919491A5019401A9
:100F50000E94171618167CF0F601EF53FE4F2591EC
:100F6000359145915491C501B4010E947D164B0104
:100F70005C012E0C3F1CF594E794F4E0CF1AD108E5
:100F80002CEFC2162FEFD206D1F63FEF3F8B20E0B9
:100F900030E0A901C501B4010E94E21818160CF056
:100FA00051C02CEA35EC47E257E3C501B4010E9479
:100FB000171618160CF446C0AF89B4E0AB02C00196
:100FC0001124D12CC12CFC01EF53FE4F2F019C01A9
:100FD00027523E4F39013F893F3F09F433C0F201A8
:100FE000EC0DFD1D659175918591949120E030E0A7
:100FF00040E251E40E947D16A50194010E94E2188E
:1010000018167CF4F301EC0DFD1D259135914591E9
:101010005491C501B4010E947D164B015C012E184C
:101020003F08F594E7948F8981508F8B94E0C91A1B
:10103000D108D1CFF0E2EF2EF12C85E08F8B312C4F
:10104000212CA5CFC501B4010E94B3186B017C010E
:101050002B013C0180E492E4AFE0B0E0888F998FEF
:10106000AA8FBB8F96E09F8BAAE04A1651046104B9
:101070007104E0F0688D798D8A8D9B8D2AE030E0D7
:1010800040E050E00E949C17288F398F4A8F5B8F79
:10109000BF89B150BF8BC301B2012AE030E040E00C
:1010A00050E00E949C1729013A01DECFC701B6012A
:1010B0000E941C169B01AC01C501B4010E94CD1712
:1010C0004B015C01688D798D8A8D9B8D0E941C1669
:1010D0009B01AC01C501B4010E947D162B013C01AE
:1010E0000E94B3184B015C010E941C169B01AC01CD
:1010F000C301B2010E94CD179B01AC010E94CE1723
:101100000E94B318860E971EA81EB91E888D998D51
:10111000AA8DBB8D88169906AA06BB06C0F09FEF64
:10112000C91AD90AE90AF90A2114310439F1AAE0E5
:10113000CA16D104E104F10408F1BFEF2B1A3B0AEF
:10114000812C912C5401C12CD12C7601C3946AE0DE
:10115000462E512C612C712CC501B401A3019201C2
:101160000E949C17672B682B692B61F4EF891E1670
:101170004CF449015A01E150EF8BEECF812C912CB8
:101180005401E5CFB701A601C8010E944604FF89BA
:10119000FF2391F16E0121E1C20ED11CF88F76017F
:1011A0005AE0452E512C612C712C388D3150388FDE
:1011B0003F3F69F0C501B401A30192010E949C1751
:1011C000605DD6016E936D0149015A01EECFBF8972
:1011D0008B2F90E0BC0160957095F701E81BF90B2F
:1011E00031978EE2808344275527461B570B6E0D9F
:1011F0007F1DC8010E9431042114310449F165E6C4
:10120000C8010E941C04710137FE07C06DE2C801CD
:101210000E941C04F194E194F108FE0177969F016D
:101220004AE0C42ED12CC701B6010E94E718805DA8
:1012300082937B01672BB9F7A9014E1B5F0BBF019E
:10124000C8010E94310404C06DE5C8010E941C045D
:10125000F801828193816B960FB6F894DEBF0FBEC2
:10126000CDBFDF91CF911F910F91FF90EF90DF9055
:10127000CF90BF90AF909F908F907F906F905F9036
:101280004F903F902F9008956BE7C8010E941C0477
:10129000D701FC90DD24D39486E0B82ECC24C394EF
:1012A000BFEFFB1651F1F801A481B581EF2DE29556
:1012B000EF70F4E0EF9FC00111245596ED91FC9181
:1012C000E80FF91F9F2D9F70E280F3809B9DE00C3B
:1012D000F11C1124B801C7010E94B906D701159667
:1012E000FC90BFEFFB1639F06AE3D11001C06CE24D
:1012F000C8010E941C04DC24D3CF6DE7A6CF50E0C8
:1013000040E0E114F10441F0F70101900020E9F719
:101310003197AF014E195F09B701C8010E947E06DF
:10132000D80112968D919C9196CFF70160817181C1
:1013300050E040E06115710581F3FB010190002050
:10134000E9F73197AF01461B570BE7CFED91FC91C1
:10135000438150E0BF016C5F7F4F72CF4D915D9133
:101360006D917C9163CD8C9166E571E08111A9CD81
:101370006BE571E0A6CDAF92BF92CF92DF92EF9274
:10138000FF920F931F93CF93DF938C01FC01108288
:101390000E94E702D12CC12CA12CE12CD0E0B12C71
:1013A000F12C88EE92E00E945203892B09F4A3C02D
:1013B00088ECC816D10409F4A9C088EE92E00E9416
:1013C0003003C82FFF2009F465C0B1101CC0D11133
:1013D0005BC0803A41F4F8011082BF2CD1E0FFEFEE
:1013E000CF1ADF0ADECF8EE292E00E94E1036C2F7B
:1013F00070E090E080E040E10E94CA0584E391E063
:101400000E94AF05ECCFD13009F440C0D23009F4CE
:101410003FC08E2D90E00396D817190679F5C13A92
:1014200031F08FE192E00E94BC05FB2CD8CFF8018F
:10143000C19181E08E1520F49191C9278F5FFACF79
:10144000CA1509F448C086E092E00E94E1036C2FBF
:1014500070E090E080E04AE00E94CA0581E691E0F9
:101460000E9448066A2D70E090E080E04AE00E9409
:10147000CA0584E391E00E94AF05D7CFEDEFED0FF1
:10148000E00FF12FF11DC083DF5FA9CFE82EFCCF65
:10149000A82EFACF8A30E1F180EE8C0F8F3508F05C
:1014A0009ECFF80101900020E9F73197C0831182A7
:1014B00044E050E06CE671E0C8010E94FA1AFF2493
:1014C000F394892B09F0F12C61E070E080E090E06A
:1014D0000E94B50284CF82E080938504E092860466
:1014E00047E050E061E771E0C8010E94FA1A892BD9
:1014F00011F4F8011082DF91CF911F910F91FF90AD
:10150000EF90DF90CF90BF90AF900895F110E3CFB0
:10151000C8010E94360681E080938504E1CF4F9296
:101520005F926F927F928F929F92AF92BF92CF9273
:10153000DF92EF92FF920F931F93CF93DF937C0183
:101540006B018A01D22FC3E088EE92E00E94FC0377
:1015500081E092E00E94E103C7010E944806C601B3
:101560000E9436068DEF91E00E94E103DD2309F42D
:1015700050C00E94E7024B015C010E94E70268191B
:1015800079098A099B0940900401509005016090F7
:10159000060170900701641575058605970588F5A5
:1015A0008DEB93E00E94BB0944E050E069E771E0F5
:1015B0008DEB93E00E94FA1A892BF9F688EF91E0FF
:1015C0000E94BC0565E070E08DEB93E00E944A0646
:1015D0006DEB73E0C8010E94F31A88EE92E0DF9190
:1015E000CF911F910F91FF90EF90DF90CF90BF9020
:1015F000AF909F908F907F906F905F904F900C94E2
:10160000FC03C15009F0A0CF81EF91E00E94BC051E
:10161000FFCFDF91CF911F910F91FF90EF90DF905F
:10162000CF90BF90AF909F908F907F906F905F9082
:101630004F9008950F931F93CF93DF938C01EB018D
:10164000FC01808191810097E1F0688179816115C9
:101650007105A9F0428153812C813D8142175307C6
:1016600070F00E94F31A8C819D81F8019583848328
:101670001D821C82DF91CF911F910F9108950E94CE
:10168000A41988819981F801918380838A819B8143
:10169000938382838C819D819583848319821882B0
:1016A0001B821A82E5CFFC0180819181009711F0A5
:1016B0000C94A4190895CB010C94A419CF93DF9333
:1016C000DC0114962D913C911597232B79F0FB01A9
:1016D000CD91DC9160817181CE010E94081B009741
:1016E00029F08C1B9D0BDF91CF9108958FEF9FEF19
:1016F000FACFEF92FF920F931F93CF93DF93EC01FA
:101700007B018A0188819981009729F02A813B8198
:101710002417350788F4B8016F5F7F4F0E942D1A98
:10172000009791F0998388831B830A832C813D81E4
:10173000232B11F4FC0110821D830C83B7018881D7
:1017400099810E94F31A0CC088819981009711F049
:101750000E94A419198218821D821C821B821A827F
:10176000CE01DF91CF911F910F91FF90EF900895DF
:10177000FC01118210821382128215821482FB01F5
:1017800001900020E9F73197AF01461B570B0C94ED
:10179000790BAF92BF92CF92DF92EF92FF920F93AD
:1017A0001F93CF93DF93EC016B015A01790124174A
:1017B000350720F48B2D5901E42EF82E69E471E0F1
:1017C000CE010E94B80BD60114960D911C91A01663
:1017D000B10628F5E016F10608F48701D601ED916F
:1017E000FC911197E00FF11FF08010826D917C91B8
:1017F0006A0D7B1D61157105F1F0FB010190002060
:10180000E9F73197AF01461B570BCE010E94790BC8
:10181000F60180819181080F191FD801FC92CE0139
:10182000DF91CF911F910F91FF90EF90DF90CF90BC
:10183000BF90AF90089588819981009711F00E9420
:10184000A419198218821D821C821B821A82E0CF81
:10185000CB01BA010C942D1ACB010C940819CF922C
:10186000DF92EF92FF920F931F9364E070E080E0AD
:1018700090E00E94B50261E08AE00E94EA0160E027
:101880008AE00E94BC0183E090E00197F1F761E0FB
:101890008AE00E94BC0183E290E00197F1F760E0EA
:1018A0008AE00E94BC0160E08AE00E94EA01E4E56F
:1018B000F2E06491E2E7F2E0E491F0E0EE0FFF1F66
:1018C000ED55FE4F8591949100E516E420E030E05F
:1018D000462F0E94A90E611571058105910529F019
:1018E0006F5F7F4F8F4F9F4F9F700E941C1626E99E
:1018F00033E44BE85CE30E947D166B017C0120E041
:1019000030E046E953E40E94E21818164CF020E05B
:1019100030E0A901C701B6010E941716811106C067
:10192000C12CD12C80E8E82E8FEBF82EC701B60130
:101930001F910F91FF90EF90DF90CF900895BF928D
:10194000CF92DF92EF92FF920F931F93CF93DF938B
:10195000CDB7DEB760970FB6F894DEBF0FBECDBF30
:101960008EE791E00E9448060CEB13E0C8018C5B07
:1019700093400F5F1F4F209186042817190671F0BE
:101980006CF0D8016C9170E090E080E040E10E9442
:10199000CA058AE691E00E944806E8CF8AE691E00F
:1019A0000E94360690E080E0FE0131967F0123E040
:1019B000D22ECC24C39432E0B32E20918604281773
:1019C000190609F00CF494C08C010F5F1F4FFC0145
:1019D000E454FC4F2181233009F448C030F4213015
:1019E000F9F0223079F18C013EC0243009F448C06E
:1019F0002530C9F7D801A454BC4F11963C912381DE
:101A00008C010D5F1F4FF801E454FC4F81818093DE
:101A100001013323A1F0211168C0B092280223C034
:101A2000F801E454FC4F218120931F028C010E5FCA
:101A30001F4FF801E454FC4F818180932002D09223
:101A4000280211C0980124543C4F8C010D5F1F4F98
:101A5000C80184549C4FDC0111964C916381F901BB
:101A600081810E94C804C8010196A7CFF801E454FF
:101A7000FC4F81818D3808F08CE80E947102F3CF11
:101A8000F801E454FC4F8181813031F51C861B86BE
:101A90001E861D86188A1F864AE0B70185E090E001
:101AA0000E94ED15F70101900020E9F73197AF0191
:101AB0004E195F09B701CE010B960E94790B6B8519
:101AC0007C8520E0A70189E891E00E948F0ACE0181
:101AD0000B960E94530BC7CF20E0A7016FEA71E07D
:101AE00089E891E00E948F0ABECFC0922802BBCF46
:101AF00060960FB6F894DEBF0FBECDBFDF91CF91D9
:101B00001F910F91FF90EF90DF90CF90BF900895BD
:101B10001F920F920FB60F9211242F933F938F9322
:101B20009F93AF93BF9380912B0290912C02A09131
:101B30002D02B0912E0230912A0223E0230F2D377F
:101B400058F50196A11DB11D20932A0280932B0206
:101B500090932C02A0932D02B0932E0280912F021D
:101B600090913002A0913102B09132020196A11DF4
:101B7000B11D80932F0290933002A0933102B09355
:101B80003202BF91AF919F918F913F912F910F9012
:101B90000FBE0F901F90189526E8230F0296A11DE7
:101BA000B11DD2CF1F920F920FB60F9211242F9317
:101BB0003F934F935F936F937F938F939F93AF93D5
:101BC000BF93EF93FF9388EE92E00E947203FF9120
:101BD000EF91BF91AF919F918F917F916F915F91A5
:101BE0004F913F912F910F900FBE0F901F9018951E
:101BF0001F920F920FB60F9211242F938F939F93E2
:101C0000EF93FF93E091F802F091F9028081E09167
:101C1000FE02F091FF0282FD1BC0908180910103C2
:101C20008F5F8F7320910203821741F0E0910103CF
:101C3000F0E0E851FD4F958F80930103FF91EF9104
:101C40009F918F912F910F900FBE0F901F9018951D
:101C50008081F4CF1F920F920FB60F9211242F9311
:101C60003F934F936F937F938F939F93AF93BF93C4
:101C7000EF93FF93809108018F5F8093080181119A
:101C800038C0E4E3F2E047818581411103C09085CB
:101C90009923E9F090E03681232F30E0BC01621BEC
:101CA000730B161617064CF4442389F0240F311DCC
:101CB0002817390764F4C9010AC0672B41F0408531
:101CC000442329F0241B310982179307A4F3868348
:101CD0008681882349F09181A281B3818481911109
:101CE00031C09C91892B8C93399682E0E83EF807AD
:101CF00051F6E4E3F2E0808187FD0FC08091080196
:101D0000968198130AC0A281B38184819181911137
:101D10001DC09C91809589238C93399682E0E83E82
:101D2000F80749F7FF91EF91BF91AF919F918F9184
:101D30007F916F914F913F912F910F900FBE0F9018
:101D40001F9018959C9180958923CDCF9C91892BCC
:101D5000E3CFCF92DF92EF92FF920F931F93E82F82
:101D6000F92F05C0015011092109310961F1908154
:101D700096239417B9F305C00150110921093109BF
:101D800011F1908196239413F7CFC12CD12CE12C23
:101D9000F12C0AC08FEFC81AD80AE80AF80A0C1505
:101DA0001D052E053F0579F080818623841791F368
:101DB0006C2D7D2D8E2D9F2D1F910F91FF90EF90FB
:101DC000DF90CF90089560E070E080E090E01F9198
:101DD0000F91FF90EF90DF90CF900895E8EEF2E042
:101DE0001382128288EE93E0A0E0B0E084839583B2
:101DF000A683B78386E291E09183808385EC90E0AF
:101E00009587848784EC90E09787868780EC90E0C4
:101E1000918B808B81EC90E0938B828B82EC90E0B5
:101E2000958B848B86EC90E0978B868B118E128E2F
:101E3000138E148E0E94E7026093850370938603CD
:101E400080938703909388030E94E7021092BC035B
:101E500081E0809385041092860429E031E030937C
:101E60008804209387041092890410928B041092A6
:101E70008A042CE834E030939D0420939C04109253
:101E80009E0494E090939F049FEF9093A00410927F
:101E9000A5049093A6048093A7046EE871E082EAFB
:101EA00093E00E94F31A6EE871E089E893E00E94E3
:101EB000F31A1092BB030895CF93DF93CDB7DEB72B
:101EC000C35FD1090FB6F894DEBF0FBECDBF7894C3
:101ED00084B5826084BD84B5816084BD85B582602F
:101EE00085BD85B5816085BD80916E0081608093E0
:101EF0006E00109281008091810082608093810049
:101F00008091810081608093810080918000816058
:101F1000809380008091B10084608093B1008091B3
:101F2000B00081608093B00080917A0084608093DB
:101F30007A0080917A00826080937A0080917A00A2
:101F4000816080937A0080917A00806880937A0023
:101F50001092C1000E94E7027B01E091F802F0912B
:101F6000F90212E01083E091F402F091F502108280
:101F7000E091F602F091F70280E180831092000375
:101F8000E091FC02F091FD0286E08083E091FA028C
:101F9000F091FB02808180618083E091FA02F091F0
:101FA000FB02808188608083E091FA02F091FB025D
:101FB000808180688083E091FA02F091FB02808149
:101FC0008F7D808388E991E00E9448068BEA91E04A
:101FD0000E9436068AE491E00E94BC0581E087BB3E
:101FE0001093B1001093B00082E88093B300109377
:101FF0007000E4E3F2E088EE92E02FEF208311829C
:10200000138212821782108639968E179F07B1F7B6
:1020100010923302CE0101964C016E0199ECC90E6B
:10202000D11C5E01E4E0AE0EB11C140186014090AB
:102030001501509016016090170149825A826B82F7
:1020400060E0F40181914F010E941B02F80140827F
:102050005182628244E650E064E670E0F6018191CC
:102060006F010E9492048A149B0439F740E065EAEC
:102070008FEF0E94C804610158014E01F5E08F0EF8
:10208000911C4090110150901201609013017090CA
:10209000140149825A826B827C8260E0F601819150
:1020A0006F010E941B02F80140825182628273829A
:1020B00044E650E064E670E0F50181915F010E9422
:1020C00092048C149D0429F760E088E00E94EA01E4
:1020D00060E087E00E94EA0160E081E10E94EA019D
:1020E00086E08093BB0360E00E941B0250E040E06A
:1020F00070E060E08091BB030E9492048AE50E9438
:1021000071021092A70488EB9BE0A0E0B0E08093FE
:10211000040190930501A0930601B093070121E00B
:10212000A10169E471E081EB91E00E948F0A8CE2E9
:1021300091E00E94E103C1010E943606B101CE0187
:1021400082519F4F0E94B80B69E471E0CE01885123
:102150009F4F0E94B80B88E690E00E94E103CE50AA
:10216000DF4F48815981C25FD040C251DF4F688143
:102170007981CE5ED04088EE92E00E94F40284E342
:1021800091E00E94AF0567EB71E0C8010E94B80BB7
:10219000B801CE0182519F4F0E945E0B9C0150E01E
:1021A00040E0BE0162517F4FCE018E519F4F0E9491
:1021B000C90BCE51DF4F88819981C25ED040009714
:1021C00009F413C10E94B1154B01CE018E519F4FEE
:1021D0000E94530BC8010E94530BCE50DF4FC880A2
:1021E000D980C25FD04067EB71E0C8010E94B80B94
:1021F000B801CE0182519F4F0E945E0BAC014F5F30
:102200005F4F9601BE0162517F4FCE018E519F4FAD
:102210000E94C90BBE016E517F4FCE0188519F4F66
:102220000E941A0BCE018E519F4F0E94530BC80182
:102230000E94530B67EB71E0C8010E94B80BB80114
:10224000CE0188519F4F0E945E0B9C0150E040E000
:10225000BE0168517F4FCE018E519F4F0E94C90B26
:10226000CE51DF4F88819981C25ED040009709F43A
:10227000C0C00E94B1156B01CE018E519F4F0E94CC
:10228000530BC8010E94530BC451DF4FA880B98083
:10229000CC5ED04067EB71E0C8010E94B80BB8017A
:1022A000CE0188519F4F0E945E0BAC014F5F5F4F84
:1022B0009501BE0168517F4FCE018E519F4F0E9404
:1022C000C90BBE016E517F4FCE0188519F4F0E94B6
:1022D0001A0BCE018E519F4F0E94530BC8010E94D2
:1022E000530B67EB71E0C8010E94B80BB801CE0137
:1022F00088519F4F0E945E0B9C0150E040E0BE0160
:1023000068517F4FCE018E519F4F0E94C90BCE5115
:10231000DF4F88819981C25ED04070E0009711F054
:102320000E94B115B72ECE018E519F4F0E94530BC4
:10233000C8010E94530B181419040CF05EC0F4E09D
:10234000CF16D1040CF459C07B2D7095D72EDD1C0F
:10235000DD24DD1CCE0188519F4F0E94530BCE011E
:1023600082519F4F0E94530BD11049C08EEE90E0D6
:102370000E94E10381E090E00E942F068CEE90E045
:102380000E94E10384E090E00E942F068AEE90E034
:102390000E94E1034AE060E070E0CB010E94CA05C0
:1023A00084E391E00E94AF0589EC90E00E94BC05B7
:1023B0008FE99CE090932202809321026701FF0C39
:1023C000EE08FF080E94E7026C197D098E099F093B
:1023D000643F71408105910508F08CC061E070E0B8
:1023E00080E090E00E94B502EDCF60E070E0CB01AC
:1023F000EBCE60E070E0CB013ECFD12CABCF88EECE
:1024000093E0A0E0B0E08093040190930501A093D5
:102410000601B093070168EE73E080E090E00E944F
:10242000B50221E0A80162EA73E089EB91E00E9425
:102430008F0A21E0A80169E873E08EEB91E00E9429
:102440008F0A21E0A8016EE871E083EC91E00E9420
:102450008F0A21E0A8016AEC71E083ED91E00E940F
:102460008F0A21E0A80169ED71E08FED91E00E94F3
:102470008F0A80E197E2A0E0B0E08093040190939E
:102480000501A0930601B093070121E0A80169E4CA
:1024900071E084EE91E00E948F0A64E170E080E0D8
:1024A00090E00E94B5028EEA90E00E94E103C8012C
:1024B0000E9448068CEA90E00E94E10389ED91E0D9
:1024C0000E9436068AE890E00E94E103C8010E945B
:1024D00048068FE790E00E94BC0584E690E0A0E00B
:1024E000B0E08093040190930501A0930601B0939E
:1024F00007015ECF84E491E00E94BC054AE06FEFE3
:102500008AE00E94C8044E018BE0880E911C90E086
:10251000A92E90E0B92E11E002E8F09029028091F6
:1025200003018F1569F087E891E00E94E103F092C2
:102530000301FF2009F46CC091E0F91609F479C099
:1025400080912902882309F481C0813009F4B6C042
:102550008DEB93E00E94BB098091BD03811105C002
:1025600080918504882309F447C046E050E06AEE74
:1025700071E08DEB93E00E94FA1A892B09F039C2C1
:102580001092BC038091A7048823A1F10E94E70266
:10259000C0908503D0908603E0908703F090880375
:1025A0006C197D098E099F096D33710581059105AF
:1025B00008F181E791E00E94E10388EE92E09A83BE
:1025C00089831C821B8287E894E09E838D83B101FE
:1025D00081EA94E00E94B90685E391E00E944806F2
:1025E0000E94E702609385037093860380938703BC
:1025F0009093880310928504A114B10409F48DCF3F
:102600000E945E03882309F487CF0E94000084CFD4
:1026100082E891E00E94BC054AE06FEF8AE00E94E8
:10262000C80460E080E00E94F9048AE50E9471021B
:1026300087CF8EE791E00E94BC05E3E0E09328029B
:1026400045EA6AE08FEF0E94C8047ACF0E94E70251
:10265000C0902402D0902502E0902602F09027023C
:102660006C197D098E099F09653F714081059105AF
:1026700080F08091230221E08227809323020E9430
:10268000E7026093240270932502809326029093C0
:10269000270280912302882369F04AE06FEF8AE0E5
:1026A0000E94C8048091BC03882309F451CF109381
:1026B00029024ECF40E060E080E0F2CF80EA8983DB
:1026C0001A821B8291E89C830E942F0C20E030E04C
:1026D00040E251E40E947D160E94B3187D836E8310
:1026E0000F8388E00E9493017C0187E00E949301A0
:1026F000AC0121E030E0EF2811F030E020E0220FC3
:10270000331F91E0452B09F090E0922B9887E3E886
:10271000E987F3E4F0937C0080917A0080648093F1
:102720007A0080917A0086FDFCCF609178007091EC
:102730007900072E000C880B990B0E941E1620E0D2
:1027400030E040E85AE30E947D162BE33FED47EA74
:1027500050E40E947D169B01AC010E94CE1720E040
:1027600030E048EC52E40E947D160E94AC18072E1F
:10277000000C880B990B0E941E1620E030E048ECFC
:1027800052E40E943A1820E030E040EC50E40E940D
:10279000CD1720E030E048EC52E40E947D166B013A
:1027A0007C0120E030E0A9010E94E21820E030E046
:1027B00040E05FE387FD72C0C701B6010E94CE17FB
:1027C0000E94AC186A8721EA2B8787E08A83F1018F
:1027D00080E0919189278E169F06D9F78B8389E532
:1027E00091E00E94E1034BE050E0B10188EE92E0FD
:1027F0000E94F40285E391E00E9448068091BC03A8
:10280000811102C010922902F090020180912802E9
:10281000F816F9F083E691E00E94E1036F2D70E075
:1028200090E080E04AE00E94CA058EE591E00E94B7
:10283000E1036091280270E090E080E04AE00E94AD
:10284000CA0584E391E00E94AF058091280280933D
:10285000020180912802823009F467C0833009F4B4
:10286000C3C0813009F074CE0E942F0C6B017C0133
:1028700020E030E040E850E40E94171687FF13C0C4
:1028800020E030E0A901C701B6010E94E218181645
:1028900054F460E080E00E94F9045ACEC701B6010A
:1028A0000E94CD178DCF20E030E040E251E4C70117
:1028B000B6010E94171687FF0CC020E030E0A90186
:1028C000C701B6010E94E21818161CF46EE18EE1F1
:1028D000E2CF20E030E040EA51E4C701B6010E94B7
:1028E000171687FF0DC020E030E0A901C701B6012F
:1028F0000E94E218181624F480910101682FCBCFB2
:1029000088E00E949301892B29F480910101682FAE
:102910008195C1CF87E00E949301892B09F0B9CF3F
:1029200080910101682F6195B6CF88E00E949301E4
:102930006C0187E00E9493017C010E942F0C2B0107
:102940003C0120E030E040EA51E40E94E218181611
:102950004CF020E030E0A901C301B2010E9417163B
:1029600087FF07C0CD28D9F0EF2839F010931E0259
:10297000C3CFCD28A1F0EF28A1F4809100018130D0
:1029800029F080911E02882309F4E2CD8091010193
:10299000682F81950E94F904109300010FC0EF2861
:1029A00081F480910101982F919520910001692F68
:1029B000213011F4682F892F0E94F90410921E0211
:1029C000C7CD809100018F3F29F080911E0288239E
:1029D00009F4BECD80910101682F61950E94F90430
:1029E0008FEF80930001EACF6091200280911F0257
:1029F00052CF4BE050E061EF71E08DEB93E00E942D
:102A0000FA1A892B19F41093BC03BCCD4EE050E0A8
:102A10006DEF71E08DEB93E00E94FA1A892B09F4B7
:102A2000AFCD49E050E06CE072E08DEB93E00E94A6
:102A3000FA1A892B51F48091BC03882309F4A0CDA4
:102A400085E791E00E94BC059BCD43E050E066E144
:102A500072E08DEB93E00E94FA1A892B89F48AE1E7
:102A600092E00E9436068DEB93E00E9436061093AA
:102A7000BC0363E070E08DEB93E00E944A0682CDD8
:102A800080918504823009F07DCD1093BC03E091E4
:102A90002102F0912202309709F474CD099572CD8C
:102AA000FF920F931F93CF93DF93C0918704D09130
:102AB000880460918A0470918B046115710579F026
:102AC000DB018D919C9190938B0480938A04E88123
:102AD000F9810280F381E02DCE010995EACF0091C2
:102AE000870410918804F12C60919C0470919D04DE
:102AF00080919E04F816C8F4B4E0FB9EE001112416
:102B0000C60FD71F6A817B816115710541F0D8011D
:102B1000ED91FC910280F381E02DC80109951B82A3
:102B20001A8218821982F394DFCF10929E048FEFDD
:102B30008093A004B4E06C387B0769F0D801ED9174
:102B4000FC910280F381E02DC801DF91CF911F91AC
:102B50000F91FF900994DF91CF911F910F91FF90FA
:102B600008951F93FC0199278827BC01E8941191CF
:102B70001032E9F3193010F01E30C8F31B3251F057
:102B80001D3249F4689406C00E94D815610F711D6A
:102B9000811D911D119110531A30B0F33EF49095A0
:102BA0008095709561957F4F8F4F9F4F1F9108952E
:102BB000592F482F372F262F660F771F881F991FF1
:102BC000660F771F881F991F620F731F841F951F41
:102BD000660F771F881F991F0895BB27FB01552794
:102BE000AA27880F991FAA1FA41710F0A41B83956A
:102BF0005051B9F7A05DAA3308F0A95DA1930097E1
:102C000079F7B111B1931192CB010C940716DC0145
:102C1000FC01672F71917723E1F7329704C07C9113
:102C20006D9370836291AE17BF07C8F308950E9439
:102C3000591608F481E00895E89409C097FB3EF422
:102C400090958095709561957F4F8F4F9F4F9923F9
:102C5000A9F0F92F96E9BB279395F6958795779577
:102C60006795B795F111F8CFFAF4BB0F11F460FF37
:102C70001BC06F5F7F4F8F4F9F4F16C0882311F08F
:102C800096E911C0772321F09EE8872F762F05C0A3
:102C9000662371F096E8862F70E060E02AF09A953E
:102CA000660F771F881FDAF7880F9695879597F933
:102CB0000895990F0008550FAA0BE0E8FEEF1616CD
:102CC0001706E807F907C0F012161306E407F50720
:102CD00098F0621B730B840B950B39F40A2661F094
:102CE000232B242B252B21F408950A2609F4A14037
:102CF000A6958FEF811D811D08950E9490160C945A
:102D000001170E94F31638F00E94FA1620F095235E
:102D100011F00C94EA160C94F01611240C9435174B
:102D20000E94121770F3959FC1F3950F50E0551F45
:102D3000629FF001729FBB27F00DB11D639FAA2710
:102D4000F00DB11DAA1F649F6627B00DA11D661F5F
:102D5000829F2227B00DA11D621F739FB00DA11D80
:102D6000621F839FA00D611D221F749F3327A00D3A
:102D7000611D231F849F600D211D822F762F6A2FD6
:102D800011249F5750409AF0F1F088234AF0EE0F3B
:102D9000FF1FBB1F661F771F881F91505040A9F768
:102DA0009E3F510580F00C94EA160C9435175F3F56
:102DB000E4F3983ED4F3869577956795B795F795A4
:102DC000E7959F5FC1F7FE2B880F911D969587951C
:102DD00097F9089597F99F6780E870E060E008959B
:102DE0009FEF80EC089500240A9416161706180623
:102DF0000906089500240A941216130614060506FF
:102E00000895092E0394000C11F4882352F0BB0F8F
:102E100040F4BF2B11F460FF04C06F5F7F4F8F4FF2
:102E20009F4F089557FD9058440F551F59F05F3F2D
:102E300071F04795880F97FB991F61F09F3F79F0DC
:102E400087950895121613061406551FF2CF46955E
:102E5000F1DF08C0161617061806991FF1CF8695E0
:102E60007105610508940895E894BB2766277727C4
:102E7000CB0197F90895052E97FB1EF400940E944C
:102E8000521757FD07D00E949C1707FC03D04EF441
:102E90000C94521750954095309521953F4F4F4FC8
:102EA0005F4F089590958095709561957F4F8F4FF6
:102EB0009F4F08950E94BE17A59F900DB49F900D3F
:102EC000A49F800D911D112408952F923F924F923F
:102ED0005F926F927F928F929F92AF92BF92CF92AA
:102EE000DF92EF92FF920F931F93CF93DF93CDB7B3
:102EF000DEB7CA1BDB0B0FB6F894DEBF0FBECDBF2B
:102F000009942A88398848885F846E847D848C84FB
:102F10009B84AA84B984C884DF80EE80FD800C8104
:102F20001B81AA81B981CE0FD11D0FB6F894DEBFE7
:102F30000FBECDBFED010895A1E21A2EAA1BBB1B47
:102F4000FD010DC0AA1FBB1FEE1FFF1FA217B30775
:102F5000E407F50720F0A21BB30BE40BF50B661F8B
:102F6000771F881F991F1A9469F76095709580954F
:102F700090959B01AC01BD01CF010895A29FB001C6
:102F8000B39FC001A39F700D811D1124911DB29F9D
:102F9000700D811D1124911D08955058BB27AA273B
:102FA0000E94E5170C9401170E94F31638F00E9456
:102FB000FA1620F039F49F3F19F426F40C94F01619
:102FC0000EF4E095E7FB0C94EA16E92F0E94121725
:102FD00058F3BA17620773078407950720F079F44E
:102FE000A6F50C9434170EF4E0950B2EBA2FA02DF5
:102FF0000B01B90190010C01CA01A0011124FF27A6
:10300000591B99F0593F50F4503E68F11A16F040A0
:10301000A22F232F342F4427585FF3CF469537959F
:103020002795A795F0405395C9F77EF41F16BA0B64
:10303000620B730B840BBAF09150A1F0FF0FBB1F12
:10304000661F771F881FC2F70EC0BA0F621F731F5B
:10305000841F48F4879577956795B795F7959E3FB8
:1030600008F0B0CF9395880F08F09927EE0F979549
:10307000879508950E944E180C9401170E94FA1625
:1030800058F00E94F31640F029F45F3F29F00C94A9
:10309000EA1651110C9435170C94F0160E94121771
:1030A00068F39923B1F3552391F3951B550BBB2777
:1030B000AA2762177307840738F09F5F5F4F220FBC
:1030C000331F441FAA1FA9F335D00E2E3AF0E0E8B3
:1030D00032D091505040E695001CCAF72BD0FE2FFD
:1030E00029D0660F771F881FBB1F26173707480791
:1030F000AB07B0E809F0BB0B802DBF01FF27935849
:103100005F4F3AF09E3F510578F00C94EA160C940C
:1031100035175F3FE4F3983ED4F38695779567952E
:10312000B795F7959F5FC9F7880F911D969587957D
:1031300097F90895E1E0660F771F881FBB1F62179C
:1031400073078407BA0720F0621B730B840BBA0B5A
:10315000EE1F88F7E09508950E94B3186894B111A6
:103160000C94351708950E941A1788F09F5798F00D
:10317000B92F9927B751B0F0E1F0660F771F881F7C
:10318000991F1AF0BA95C9F714C0B13091F00E9496
:103190003417B1E008950C943417672F782F8827DF
:1031A000B85F39F0B93FCCF3869577956795B395BD
:1031B000D9F73EF490958095709561957F4F8F4F2C
:1031C0009F4F08950E94591608F48FEF0895AA1B87
:1031D000BB1B51E107C0AA1FBB1FA617B70710F002
:1031E000A61BB70B881F991F5A95A9F78095909534
:1031F000BC01CD0108950E94BE17B7FF0895821B40
:10320000930B0895EE0FFF1F0590F491E02D0994A4
:103210000F931F93CF93DF938230910510F482E0D8
:1032200090E0E091AA04F091AB0430E020E0B0E03F
:10323000A0E0309799F42115310509F44AC0281B04
:10324000390B24303105D8F58A819B8161157105D0
:1032500089F1FB0193838283FE0111C0408151817A
:103260000281138148175907E0F04817590799F46C
:10327000109761F012960C93129713961C93329646
:10328000CF01DF91CF911F910F9108950093AA0470
:103290001093AB04F4CF2115310551F042175307B9
:1032A00038F0A901DB019A01BD01DF01F801C1CFAE
:1032B000EF01F9CF9093AB048093AA04CDCFFE0128
:1032C000E20FF31F819391932250310939832883B0
:1032D000D7CF2091A8043091A904232B41F4209149
:1032E0000D0130910E013093A9042093A804209180
:1032F0000B0130910C012115310541F42DB73EB77A
:1033000040910F0150911001241B350BE091A8044E
:10331000F091A904E217F307A0F42E1B3F0B281726
:10332000390778F0AC014E5F5F4F2417350748F03E
:103330004E0F5F1F5093A9044093A804819391936B
:103340009FCFF0E0E0E09CCFCF93DF930097E9F0D0
:10335000FC01329713821282A091AA04B091AB04AF
:10336000ED0130E020E01097A1F420813181820F3F
:10337000931F2091A8043091A9042817390709F058
:1033800061C0F093A904E093A804DF91CF91089560
:10339000EA01CE17DF07E8F54A815B819E014115FE
:1033A0005105B1F7E901FB83EA8349915991C40FB3
:1033B000D51FEC17FD0761F4808191810296840F7F
:1033C000951FE90199838883828193819B838A83F6
:1033D000F0E0E0E012968D919C9113970097B9F57B
:1033E0002D913C911197CD010296820F931F209150
:1033F000A8043091A9042817390739F6309751F5F8
:103400001092AB041092AA04B093A904A093A8044C
:10341000BCCFD383C28340815181840F951FC817CD
:10342000D90761F44E5F5F4F88819981480F591F1A
:10343000518340838A819B81938382832115310547
:1034400009F0B0CFF093AB04E093AA049ECFFD0146
:10345000DC01C0CF13821282D7CFB0E0A0E0E3E35B
:10346000FAE10C9467178C01009751F4CB010E948C
:1034700008198C01C801CDB7DEB7E0E10C948317C1
:10348000FC01E60FF71F9C0122503109E217F307F8
:1034900008F49DC0D901CD91DC911197C617D707CB
:1034A00098F0C530D10530F3CE0104978617970701
:1034B00008F3C61BD70B2297C193D1936D937C93CE
:1034C000CF010E94A419D6CF5B01AC1ABD0A4C01F2
:1034D0008C0E9D1EA091AA04B091AB04512C412CDE
:1034E000F12CE12C109731F58091A8049091A9045A
:1034F0008815990509F05CC04616570608F058C0B3
:1035000080910B0190910C01009741F48DB79EB70B
:1035100040910F0150911001841B950BE817F9079A
:1035200008F055C0F093A904E093A804F901718351
:103530006083A0CF8D919C91119712966C901297F9
:1035400013967C901397A815B90559F56C0142E0C4
:10355000C40ED11CCA14DB0420F1AC014A195B096A
:10356000DA011296159780F062827382518340834C
:10357000D9016D937C93E114F10471F0D701139696
:10358000FC93EE93129776CF22968C0F9D1FF90134
:1035900091838083F301EFCFF093AB04E093AA040F
:1035A00069CF4816590608F42C017D01D3019ACF42
:1035B000CB010E9408197C01009749F0AE01B801C7
:1035C0000E94EA1AC8010E94A419870153CF10E093
:1035D00000E050CFFB01DC0102C001900D92415090
:1035E0005040D8F70895FB01DC0101900D920020B6
:1035F000E1F70895FB01DC014150504030F08D911E
:103600000190801919F40020B9F7881B990B0895CF
:10361000FB0151915523A9F0BF01DC014D914517E4
:103620004111E1F759F4CD010190002049F04D918D
:1036300040154111C9F3FB014111EFCF81E090E04A
:103640000197089511E0CFE3D1E004C0FE010E948C
:0E36500002192196C034D107C9F7F894FFCFB4
:10365E00FF41FFFF64000000FF1C010000AC04806E
:10366E0000020304050C0D0B000000002C0C5B0B7C
:10367E00280C000000009403F4022103FC03520303
:10368E00300344030D0A002F2F272722225C5C6291
:10369E0008660C6E0A720D7409005C75303030309D
:1036AE00006E756C6C00747275650066616C736586
:1036BE00002C2061637475616C3A20005753422BC5
:1036CE00005B43414D5F445D005B4F4B5D006F6E91
:1036DE00526563656976653A004C414D500047610D
:1036EE006C6178795256520047616C617879525606
:1036FE00522076657273696F6E2000322E302E3036
:10370E00005245534554002E004E414D450054592C
:10371E00504500415053534944003132333435360D
:10372E00373800415050534B003330313032005057
:10373E004F5254005354415254005B496E69745DAC
:10374E00005B434F4E4E45435445445D005B444938
:10375E0053434F4E4E45435445445D005B415050DC
:0E376E0053544F505D0057532B0052583A00F1
:00000001FF
