:100000000C9404010C942C010C942C010C942C01E4
:100010000C942C010C942C010C942C010C94921136
:100020000C942C010C942C010C942C010C942C019C
:100030000C942C010C942C010C942C010C942C018C
:100040000C94F0100C942C010C9460110C943A1147
:100050000C942C010C942C010C942C010C942C016C
:100060000C942C010C942C017475726E20726967CB
:100070006874007475726E206C65667400626163EA
:100080006B7761726400666F72776172640073747B
:100090006F70008E0086007D00730068003A393072
:1000A00030302F6D6A706700566964656F20737415
:1000B0007265616D65722073746172746564206F1E
:1000C0006E20687474703A2F2F003A00576562539F
:1000D00065727665722073746172746564206F6EE8
:1000E0002077733A2F2F00455350333220666972C0
:1000F0006D776172652076657273696F6E20004F4F
:100100006B69652100496E697469616C7A696E6713
:100110002E2E2E004150502053544F50000000000E
:1001200000240027002A00000000002300260029E8
:1001300000000000080002010000030407000000A6
:10014000000000000057532B00CDCCCC3D0AD72334
:100150003C17B7D13877CC2B329595E6241FB14F99
:100160000A000020410000C84200401C4620BCBEDE
:100170004CCA1B0E5AAEC59D745B4641494C5D008E
:100180005B4F4B5D002E2E2E005345542B006368B1
:1001900065636B73756D206572726F722C20657864
:1001A000706563743A2000656E642062797465201E
:1001B0006572726F720062696E6172792073746128
:1001C00072742062797465206572726F723A2030A1
:1001D0007800010204081020408001020408102069
:1001E00001020408102000000000250028002B0058
:1001F00004040404040404040202020202020303CD
:10020000030303035612A81611241FBECFEFD8E034
:10021000DEBFCDBF12E0A0E0B1E0ECE1F9E302C047
:1002200005900D92AA34B107D9F724E0AAE4B2E010
:1002300001C01D92A43FB207E1F711E0C3E0D1E095
:1002400004C02197FE010E94611AC230D107C9F78C
:100250000E94C4120C94811C0C940000ECE7F2E0A4
:1002600098E2208187FF08C027FF08C0399623E065
:10027000E033F207B1F708958213F8CF97839087A0
:1002800087FDF4CF0895833081F028F4813099F010
:100290008230A9F008958730A9F08830C9F0843001
:1002A000B1F4809180008F7D03C0809180008F77B2
:1002B00080938000089584B58F7784BD089584B5B8
:1002C0008F7DFBCF8091B0008F778093B000089531
:1002D0008091B0008F7DF9CFCF93DF93282F30E04E
:1002E000F901EF5CFE4F8491F901EE52FE4FD4917B
:1002F000F901E051FE4FC491CC23A1F081110E947D
:100300004301EC2FF0E0EE0FFF1FE95DFE4FA591DA
:10031000B491EC91ED2381E090E009F480E0DF916D
:10032000CF91089580E090E0FACF1F93CF93DF93B1
:10033000282F30E0F901EF5CFE4F8491F901EE5275
:10034000FE4FD491F901E051FE4FC491CC23A9F0A6
:10035000162F81110E944301EC2FF0E0EE0FFF1FDA
:10036000EA51FE4FA591B4918FB7F894EC91111119
:1003700008C0D095DE23DC938FBFDF91CF911F9112
:100380000895DE2BF8CFCF93DF9390E0FC01EE527F
:10039000FE4F249180519E4FFC0184918823D1F01F
:1003A00090E0880F991FFC01E35EFE4FA591B49188
:1003B000FC01EA51FE4FC591D49161110EC09FB767
:1003C000F8948C91E22FE0958E238C932881E22380
:1003D000E8839FBFDF91CF9108958FB7F894EC9198
:1003E000E22BEC938FBFF6CFCF93ECE7F2E0AFEFC9
:1003F00090E0208187FF05C027FF47C0AF3F41F451
:1004000006C0821709F441C0AF3F11F427FDA92FA0
:100410009F5F3996943169F787FD3AC0AF3F09F481
:1004200037C0C82F89E0A802D0011124A458BD4FBD
:10043000CC9320917B0211962C9311978C2F0C2E2C
:10044000000C990BFC01E051FE4FE491F0E0EE0F3F
:10045000FF1FEA51FE4F4591549113965C934E93C2
:100460001297FC01EE52FE4FE4911496EC93149710
:1004700015966C9360E0211161E08C2F0E9495012C
:1004800061E08C2FCF910C94C301658387FDBCCFB5
:10049000CF910895282F30E0A0EDB7E00E941D19FC
:1004A00024EB30E040E050E00E949A182C503E4F80
:1004B0004F4F5F4FAFEFB0E00E94B9182AE131E42F
:1004C00040E050E00E949A18622F809103040C943F
:1004D000F4013FB7F8948091770290917802A0914F
:1004E0007902B0917A0226B5A89B05C02F3F19F07A
:1004F0000196A11DB11D3FBFBA2FA92F982F8827A4
:10050000BC01CD01620F711D811D911D42E0660F7E
:10051000771F881F991F4A95D1F708958F929F9250
:10052000AF92BF92CF92DF92EF92FF924B015C01AC
:100530000E9469026B017C010E9469026C197D09AD
:100540008E099F09683E734081059105A8F321E05B
:10055000821A9108A108B10888EEC80E83E0D81E5F
:10056000E11CF11C81149104A104B10429F7FF904E
:10057000EF90DF90CF90BF90AF909F908F900895B5
:100580002FB7F89460917302709174028091750294
:10059000909176022FBF0895AF92BF92CF92DF92D3
:1005A000EF92FF920F931F93CF93DF936C017B0128
:1005B0008B01040F151FEB015E01AE18BF08C017B9
:1005C000D10759F06991D601ED91FC910190F0812C
:1005D000E02DC6010995892B79F7C501DF91CF91EF
:1005E0001F910F91FF90EF90DF90CF90BF90AF9051
:1005F0000895FC01538D448D252F30E0842F90E029
:10060000821B930B541710F0CF960895019708950D
:10061000FC01918D828D981761F0A28DAE0FBF2FD6
:10062000B11D5D968C91928D9F5F9F73928F90E02C
:1006300008958FEF9FEF0895FC01918D828D98179B
:1006400031F0828DE80FF11D858D90E008958FEFD8
:100650009FEF0895FC01918D228D892F90E0805CA1
:100660009F4F821B91098F739927089580E393E030
:100670000E942A0321E0892B09F420E0822F0895AB
:1006800080E090E0892B29F00E94360381110C94C0
:1006900000000895FC01A48DA80FB92FB11DA35A25
:1006A000BF4F2C91848D90E001968F739927848F92
:1006B000A689B7892C93A089B1898C9183708064B5
:1006C0008C93938D848D981306C00288F389E02D56
:1006D00080818F7D80830895EF92FF920F931F9307
:1006E000CF93DF93EC0181E0888F9B8D8C8D9813E5
:1006F0001AC0E889F989808185FF15C09FB7F894F1
:10070000EE89FF896083E889F9898081837080643C
:1007100080839FBF81E090E0DF91CF911F910F9187
:10072000FF90EF900895F62E0B8D10E00F5F1F4F96
:100730000F731127E02E8C8D8E110CC00FB607FCA5
:10074000FACFE889F989808185FFF5CFCE010E9433
:100750004A03F1CFEB8DEC0FFD2FF11DE35AFF4F54
:10076000F0829FB7F8940B8FEA89FB8980818062C1
:10077000CFCF0F931F93CF93DF938C01D0E0C0E0D6
:10078000F801EC0FFD1F6491662341F080E393E0D4
:100790000E946C03892B11F02196F2CFCE01DF91DC
:1007A000CF911F910F910895CF93DF93EC01888D26
:1007B0008823B9F0AA89BB89E889F9898C9185FDDC
:1007C00003C0808186FD0DC00FB607FCF7CF8C916A
:1007D00085FFF2CF808185FFEDCFCE010E944A03D5
:1007E000E9CFDF91CF9108956F3FA9F0E62FE29511
:1007F000EF7044E0E49F90011124DC01ED91FC9145
:10080000E20FF31F6F7082819381B6E06B9F800DC2
:10081000911D1124089590E080E00895CF93DF9317
:10082000EC0188819981DC01ED91FC910190F081CE
:10083000E02D09952A813B81820F931F9B838A8338
:10084000DF91CF910895CF93DF93EC018881998157
:10085000DC01ED91FC910280F381E02D09952A8164
:100860003B81820F931F9B838A83DF91CF910895F1
:100870008F929F92AF92BF92CF92DF92EF92FF92B0
:100880000F931F93CF93DF93CDB7DEB766970FB665
:10089000F894DEBF0FBECDBF6C018E01095E1F4F05
:1008A00078018AE0882E912CA12CB12CCB01BA01C1
:1008B000A50194010E94FB18942F852F605DF8011B
:1008C00062938F01A901692F782F411551056105A8
:1008D000710561F7A7014E1B5F0BBF01C6010E94A6
:1008E000230466960FB6F894DEBF0FBECDBFDF912E
:1008F000CF911F910F91FF90EF90DF90CF90BF901D
:10090000AF909F908F9008951F93CF93DF93182FF0
:10091000C42F70E090E080E00E947D1720E030E07E
:1009200040E85EE30E94DC170E940B1AD62F6C2F62
:1009300070E090E080E00E947D1726E636E646EE05
:100940005EE30E94DC170E940B1AC62F612F8CE019
:100950000E94F4016D2F8DE00E94F4016C2F8BE05A
:10096000DF91CF911F910C94F401CF9388E00E9406
:100970006C01C82F87E00E946C01CC0F8C2BCF91AB
:100980000895DC0152969C915297915084E0989F73
:10099000900111245096ED91FC91E20FF31F2281FA
:1009A00033812115310579F041818081481758F450
:1009B00081E0840F818386E0489F200D311D112442
:1009C0002115310521F460E070E08FEF0895B90141
:1009D000892F8295807F840F0895AF92BF92CF9226
:1009E000DF92EF92FF920F931F93CF93DF93EC016F
:1009F0008B018C8180FF2CC0A881B981FB01838190
:100A0000948130E020E0009719F1A817B90709F0A8
:100A100041C0F8014081518112969C9112979150EA
:100A200012969C931297911113C08D919C911197DE
:100A30002115310561F1F90191838083FA018081EB
:100A40009181FC0122813381BD01CA01F90109951F
:100A50008C81807631F1209721F1F8805801F5E101
:100A6000AF0EB11C8FEFF816D1F06F2DC5010E94AB
:100A7000F4036C01FC01E580B8010E94ED04F8016B
:100A8000818DF6018083F801F18EFE2CEBCF9483EB
:100A90008383D4CF9C01FC0180819181B4CFF88203
:100AA000F9821C82DF91CF911F910F91FF90EF90FF
:100AB000DF90CF90BF90AF9008952F923F924F92CA
:100AC0005F926F927F928F929F92AF92BF92CF92DE
:100AD000DF92EF92FF920F931F93CF93DF93CDB7E7
:100AE000DEB764970FB6F894DEBF0FBECDBF8D871B
:100AF0006E875E018DE0A80EB11C1E019BE0290EE1
:100B0000311CFE013996FC8BEB8B7E01FFE0EF0E72
:100B1000F11C6E0185E0C80ED11CFE0131964F011B
:100B2000FA8AE98A409010015090110160901201F8
:100B300070901301F501A1915F0181E01A160CF08C
:100B400080E0F10180831986F1E0FA87EB89FC8966
:100B50008191FC8BEB8B882331F081E01A160CF429
:100B600080E0F1018083A11145C0F7011082F101FD
:100B700011911F01F70101917F014D825E826F8209
:100B80007886109F602D1124F60180810E94F40167
:100B900049825A826B827C82F1E01F27109F602D70
:100BA0001124F40181810E94F401F2E0CF0ED11CE6
:100BB00082E0880E911CE989FA89AE16BF0609F019
:100BC000B9CF64960FB6F894DEBF0FBECDBFDF91EC
:100BD000CF911F910F91FF90EF90DF90CF90BF903A
:100BE000AF909F908F907F906F905F904F903F90CD
:100BF0002F9008950A2E000CBB0BB7FF03C0B195D0
:100C0000A195B10923EE30E00E945A1A24E630E0A3
:100C100040E050E00E949A18245E3F4F4F4F5F4FD4
:100C2000F7012083A4CF60E080E00C945D05109272
:100C300071020C941306682F61950C945D05682F62
:100C400081950C945D058195682F0C945D05682F46
:100C50000C945D05FC0101900020E9F73197AF018C
:100C6000481B590BBC0180E393E00C94CC02CF935A
:100C7000DF930E94B903EC0181E591E00E942A060E
:100C80008C0F9D1FDF91CF9108958F929F92AF920D
:100C9000BF920F931F93CF93DF93CDB7DEB7A1978A
:100CA0000FB6F894DEBF0FBECDBF19A2423008F4D4
:100CB0004AE08E010F5D1F4F842E912CB12CA12C88
:100CC000A50194010E94FB18E62FB901CA01EA3080
:100CD000F4F4E05DD801EE938D01232B242B252B1A
:100CE00079F790E080E0109719F0CD010E942A0674
:100CF000A1960FB6F894DEBF0FBECDBFDF91CF91A6
:100D00001F910F91BF90AF909F908F900895E95CD5
:100D1000E1CFCF93DF93D0E0C0E0009719F00E94BD
:100D20002A06EC0181E591E00E942A068C0F9D1FA6
:100D3000DF91CF9108950F931F93CF93DF93EB0132
:100D4000FC0101900020E9F73197E81BF90B8F01B6
:100D5000112770E0A72FB0E0A017B1078CF4AD0108
:100D60004C0F5D1FA80FB91F401751073CF4480FE7
:100D7000591FFA0120812C937F5FECCF1C92FCCF8E
:100D8000DF91CF911F910F910895CF93DF93EA01E7
:100D9000DC010D900020E9F711973A2F381BFC0178
:100DA00051E020E0231708F541912F5F4B33D1F735
:100DB00065130CC0DC01A20FB11DFD01822F83174A
:100DC00038F491919B3321F08F5FF9CF5F5FEACFC9
:100DD00030E0AE01430F511D922F930F981730F45E
:100DE0009D91FA0190833F5FF4CF30E0FE01E30F65
:100DF000F11D1082DF91CF910895FB010190002039
:100E0000E9F73197AF01461B570B0C942304CF929F
:100E1000DF92EF92FF920F931F93CF93DF938C019A
:100E20006B017A0162E20E940E04E601EC0CFD1CEB
:100E3000EC16FD0699F06991E4E5F1E0D480DD203F
:100E4000C9F0329683816813F9CF6CE5C8010E941E
:100E50000E046D2DC8010E940E04EACF62E2C801A3
:100E6000DF91CF911F910F91FF90EF90DF90CF9086
:100E70000C940E046111EECF67E671E0C8010E9488
:100E8000FD06D6CF2F923F924F925F926F927F9244
:100E90008F929F92AF92BF92CF92DF92EF92FF928A
:100EA0000F931F93CF93DF93CDB7DEB76B970FB63A
:100EB000F894DEBF0FBECDBF7C018B01DC01149620
:100EC0008C9114978A3009F4A0C2F0F4843009F4AC
:100ED00079C268F4833009F490C26EE671E0C8010B
:100EE0000E94FD06D80112968D919C9129C28530F1
:100EF00009F47BC2863089F78C9163E771E0811138
:100F000055C068E771E052C08E3009F440C0C8F4A3
:100F10008C3019F7CD90DD90ED90FC90B701A601D3
:100F2000F7FE0BC06DE2C8010E940E04442755274E
:100F3000BA014C195D096E097F09C8010E94380485
:100F4000FCC1803209F415C2803439F66BE5C80162
:100F50000E940E04D701FC90BFEFFB1609F4E9C113
:100F6000F801848195816F2D45960E94F4037C01E0
:100F7000B8010E944207D7011596FC90BFEFFB16FF
:100F800009F4D7C16CE2C8010E940E04E5CFF70155
:100F900080809180A280B380A5019401C501B40135
:100FA0000E947617882331F06EE671E0C8010E9436
:100FB000FD06C3C120E030E0A901C501B4010E94D3
:100FC0007617882371F0A5019401C501B4010E9430
:100FD0002D199B01AC01C501B4010E94761788232D
:100FE00019F320E030E0A901C501B4010E94761791
:100FF00087FF08C06DE2C8010E940E04B7FAB094E2
:10100000B7F8B09420E836E948E15BE4C501B401E3
:101010000E94411A87FD83C074E1C72ED12CE0E203
:10102000EE2EF12C312C212CF601EF59FE4F65915B
:10103000759185919491A50194010E9476171816D7
:101040007CF0F601E75BFE4F259135914591549177
:10105000C501B4010E94DC174B015C012E0C3F1C42
:10106000F594E794F4E0CF1AD1082CEFC2162FEFD5
:10107000D206D1F63FEF3F8B20E030E0A901C50159
:10108000B4010E94411A18160CF051C02CEA35EC3C
:1010900047E257E3C501B4010E94761718160CF415
:1010A00046C0AF89B4E0AB02C0011124D12CC12CE1
:1010B000FC01E75BFE4F2F019C012F593E4F390188
:1010C0003F893F3F09F433C0F201EC0DFD1D6591EE
:1010D00075918591949120E030E040E251E40E94C6
:1010E000DC17A50194010E94411A18167CF4F30143
:1010F000EC0DFD1D2591359145915491C501B4012B
:101100000E94DC174B015C012E183F08F594E79410
:101110008F8981508F8B94E0C91AD108D1CF50E2CA
:10112000E52EF12C85E08F8B312C212CA5CFC5012C
:10113000B4010E94121A6B017C012B013C0180E476
:1011400092E4AFE0B0E0888F998FAA8FBB8F96E0D2
:101150009F8BAAE04A16510461047104E0F0688D87
:10116000798D8A8D9B8D2AE030E040E050E00E942E
:10117000FB18288F398F4A8F5B8FBF89B150BF8B87
:10118000C301B2012AE030E040E050E00E94FB18C9
:1011900029013A01DECFC701B6010E947B179B01EE
:1011A000AC01C501B4010E942C194B015C01688D92
:1011B000798D8A8D9B8D0E947B179B01AC01C501A7
:1011C000B4010E94DC172B013C010E94121A4B0152
:1011D0005C010E947B179B01AC01C301B2010E941C
:1011E0002C199B01AC010E942D190E94121A860E27
:1011F000971EA81EB91E888D998DAA8DBB8D881645
:101200009906AA06BB06C0F09FEFC91AD90AE90AD7
:10121000F90A2114310439F1AAE0CA16D104E10413
:10122000F10408F1BFEF2B1A3B0A812C912C5401D9
:10123000C12CD12C7601C3942AE0422E512C612C72
:10124000712CC501B401A30192010E94FB18672B08
:10125000682B692B61F4EF891E164CF449015A0181
:10126000E150EF8BEECF812C912C5401E5CFB701EB
:10127000A601C8010E943804FF89FF2391F16E0185
:1012800021E1C20ED11CF88F76019AE0492E512C33
:10129000612C712C388D3150388F3F3F69F0C5017A
:1012A000B401A30192010E94FB18605DD6016E9308
:1012B0006D0149015A01EECFBF898B2F90E0BC012F
:1012C00060957095F701E81BF90B31978EE28083EA
:1012D00044275527461B570B6E0D7F1DC8010E94E2
:1012E00023042114310449F165E6C8010E940E046B
:1012F000710137FE07C06DE2C8010E940E04F1942F
:10130000E194F108FE0177969F018AE0C82ED12C66
:10131000C701B6010E94461A805D82937B01672B4C
:10132000B9F7A9014E1B5F0BBF01C8010E9423043E
:1013300004C06DE5C8010E940E04F801828193810A
:101340006B960FB6F894DEBF0FBECDBFDF91CF9185
:101350001F910F91FF90EF90DF90CF90BF90AF90D3
:101360009F908F907F906F905F904F903F902F90C5
:1013700008956BE7C8010E940E04D701FC90EE248B
:10138000E394BB24B394BFEFFB16D1F0F801848142
:1013900095816F2D45960E94F4036C01B8010E945F
:1013A0004207D6011596FC90BFEFFB1639F06AE3B1
:1013B000E11001C06CE2C8010E940E04EB24E3CFEF
:1013C0006DE7B8CF6D917C9150E040E061157105FB
:1013D00041F0FB0101900020E9F73197AF01461B76
:1013E000570BC8010E940707A8CFED91FC914381DC
:1013F00050E0BF016C5F7F4FF4CFED91FC914381D2
:1014000050E0BF016C5F7F4F90CF4D915D916D912A
:101410007C9193CDCF93DF9300D000D000D0CDB797
:10142000DEB785E491E00E94B90380E393E09A83FC
:1014300089831C821B828FEC94E09E838D83BE0186
:101440006F5F7F4F89EE94E00E94420782E591E052
:101450000E942A0626960FB6F894DEBF0FBECDBFB7
:10146000DF91CF910895AF92BF92CF92DF92EF922A
:10147000FF920F931F93CF93DF938C01FC01108297
:101480000E94C002D12CC12CA12CE12CD0E0B12CA7
:10149000F12C80E393E00E942A03892B09F4A3C076
:1014A00088ECC816D10409F4A9C080E393E00E9437
:1014B0000803C82FFF2009F465C0B1101CC0D1116A
:1014C0005BC0803A41F4F8011082BF2CD1E0FFEFFD
:1014D000CF1ADF0ADECF86EB91E00E94B9036C2FB2
:1014E00070E090E080E040E10E94450681E591E0F7
:1014F0000E942A06ECCFD13009F440C0D23009F462
:101500003FC08E2D90E00396D817190679F5C13AA1
:1015100031F087EA91E00E943706FB2CD8CFF80122
:10152000C19181E08E1520F49191C9278F5FFACF88
:10153000CA1509F448C08EE891E00E94B9036C2FE7
:1015400070E090E080E04AE00E9445068EE791E07E
:101550000E942A066A2D70E090E080E04AE00E9436
:10156000450681E591E00E942A06D7CFEDEFED0F09
:10157000E00FF12FF11DC083DF5FA9CFE82EFCCF74
:10158000A82EFACF8A30E1F180EE8C0F8F3508F06B
:101590009ECFF80101900020E9F73197C0831182B6
:1015A00044E050E069E871E0C8010E94591CFF2442
:1015B000F394892B09F0F12C61E070E080E090E079
:1015C0000E948E0284CF82E08093CD04E092CE040C
:1015D00047E050E06EE871E0C8010E94591C892B79
:1015E00011F4F8011082DF91CF911F910F91FF90BC
:1015F000EF90DF90CF90BF90AF900895F110E3CFC0
:10160000C8010E94890681E08093CD04E1CF4F920A
:101610005F926F927F928F929F92AF92BF92CF9282
:10162000DF92EF92FF920F931F93CF93DF937C0192
:101630006B018A01D22FC3E080E393E00E94D403C0
:1016400089E891E00E94B903C7010E942A06C601F9
:101650000E94890685E891E00E94B903DD2309F420
:1016600050C00E94C0024B015C010E94C002681978
:1016700079098A099B094090030150900401609008
:10168000050170900601641575058605970588F5B6
:1016900085E094E00E94330A44E050E066E971E09E
:1016A00085E094E00E94591C892BF9F680E891E0CE
:1016B0000E94370665E070E085E094E00E949B069A
:1016C00065E074E0C8010E94521C80E393E0DF9162
:1016D000CF911F910F91FF90EF90DF90CF90BF902F
:1016E000AF909F908F907F906F905F904F900C94F1
:1016F000D403C15009F0A0CF89E791E00E943706DA
:10170000FFCFDF91CF911F910F91FF90EF90DF906E
:10171000CF90BF90AF909F908F907F906F905F9091
:101720004F900895FC0180819181009711F00C94F5
:10173000031B0895CB010C94031BEF92FF920F93B0
:101740001F93CF93DF93EC017B018A0188819981FC
:10175000009729F02A813B812417350788F4B801C6
:101760006F5F7F4F0E948C1B009791F09983888355
:101770001B830A832C813D81232B11F4FC011082F1
:101780001D830C83B701888199810E94521C0CC073
:1017900088819981009711F00E94031B1982188299
:1017A0001D821C821B821A82CE01DF91CF911F9174
:1017B0000F91FF90EF900895FB0101900020E9F751
:1017C0003197AF01461B570B0C949D0BCF92DF92C4
:1017D000EF92FF92CF93DF93CDB7DEB76A970FB644
:1017E000F894DEBF0FBECDBFAE014F5F5F4F682FD5
:1017F00085E094E00E94C5061E8A1D8A188E1F8A05
:101800001A8E198EBE016F5F7F4FCE0145960E94E2
:10181000DC0B8D899E89C12CD12C7601009719F0A3
:101820000E9409176B01CE0145960E94920BC601DA
:101830006A960FB6F894DEBF0FBECDBFDF91CF9191
:10184000FF90EF90DF90CF900895CF92DF92EF92CC
:10185000FF92CF93DF93CDB7DEB76A970FB6F894B8
:10186000DEBF0FBECDBFAE014F5F5F4F0E94C5060A
:101870001E8A1D8A188E1F8A1A8E198EBE016F5FEE
:101880007F4FCE0145960E94DC0B8D899E89C12C2D
:10189000D12C7601009721F00E9409176B017C0181
:1018A000CE0145960E94920B81E0CD28CE28CF280C
:1018B00009F480E06A960FB6F894DEBF0FBECDBF84
:1018C000DF91CF91FF90EF90DF90CF900895CB0103
:1018D000BA010C948C1BCF92DF92EF92FF920F9380
:1018E0001F9364E070E080E090E00E948E0261E06F
:1018F0008AE00E94C30160E08AE00E94950183E0D3
:1019000090E00197F1F761E08AE00E94950183E29F
:1019100090E00197F1F760E08AE00E94950160E0B5
:101920008AE00E94C301ECEDF1E06491EAEFF1E09E
:10193000E491F0E0EE0FFF1FE95DFE4F8591949179
:1019400000E516E420E030E0462F0E9411126115F8
:1019500071058105910529F06F5F7F4F8F4F9F4F74
:101960009F700E947B1726E933E44BE85CE30E94FA
:10197000DC176B017C0120E030E046E953E40E9473
:10198000411A18164CF020E030E0A901C701B60159
:101990000E947617811106C0C12CD12C80E8E82E58
:1019A0008FEBF82EC701B6011F910F91FF90EF90BA
:1019B000DF90CF900895BF92CF92DF92EF92FF9287
:1019C0000F931F93CF93DF93EC01198D1F3F81F08D
:1019D000612F45960E94F403FC018081898F309726
:1019E00009F477C014828FEF8583BF01812F76C001
:1019F0006C0135E0C30ED11CE880F9808F89882303
:101A000041F0C6010E94C104E62FF72F182F30972E
:101A100049F71F89988D191324C0103109F459C052
:101A2000110F6D897E89D701ED91FC91B4E01B9F68
:101A3000A0011124C616D70609F044C00190F08118
:101A4000E02DBA01C7010995009709F442C020E1D1
:101A5000F601DC0101900D922A95E1F79E8B8D8BAA
:101A6000188F0D891E898F8921E0280F2F8BE4E0C4
:101A70008E9FC0011124080F191F90E1B92E20314B
:101A800011F48FE0B82EF6E0BF9EB0011124D7010B
:101A9000ED91FC910190F081E02DC7010995F801CD
:101AA00093838283892B09F4B12CD801BC921196BF
:101AB0001C92012B71F0C6010E94C104E62FF72F82
:101AC000182F8DCF0480F581E02DC701099500976F
:101AD00029F681E08A8360E070E08FEFDF91CF919B
:101AE0001F910F91FF90EF90DF90CF90BF900895DE
:101AF0007F928F929F92AF92BF92CF92DF92EF929E
:101B0000FF920F931F93CF93DF93EC016115710543
:101B100089F4B12CA12CC501DF91CF911F910F91B8
:101B2000FF90EF90DF90CF90BF90AF909F908F90FD
:101B30007F9008958C8181112AC080E28C83209748
:101B400041F38FEF888389837A018B016A0185E1F4
:101B5000C80ED11C6881C6010E94F403FC01BB249D
:101B6000BA94892B09F0B580AA24A394992493945C
:101B7000309709F451C0AA2099F18481843069F02A
:101B80008530C9F190E080E0F0E0E0E015C08032FF
:101B900009F0BFCF2097C1F6BCCF0190F081E02DB6
:101BA00090E080E0309741F0DF010D900020E9F7F0
:101BB000CD0101978E1B9F0BD8010D900020E9F7F6
:101BC0001197A01BB10BA817B90751F4D8018E0FBC
:101BD0009F1F8E179F07C1F031912D913217C9F3C6
:101BE000A9246B2DC6010E94F403FC01892B09F482
:101BF000BFCFB580BDCF0190F081E02D838190E013
:101C00003496DACF78822AC06B2DC6010E94F40385
:101C10005C01892B09F07FCFC7010E94DB0C782E75
:101C20004B01672B09F475CFC7010E94DB0CF82E1E
:101C3000962FA92EB72EA114B10409F46ACF84E01F
:101C4000F401848311830083F58269816F3FD1F2AF
:101C5000C6010E94F403DC0115967C92F9825BCFE9
:101C6000CF92DF92EF92FF920F931F93CF93DF9368
:101C7000FC0100811181C8014A9609F17B01628152
:101C80007381A8010E94780DEC010097C1F0F70163
:101C9000C080D180E280F380B8010E94ED048EE024
:101CA0008C83C882D982EA82FB8281E0DF91CF9166
:101CB0001F910F91FF90EF90DF90CF90089580E0FB
:101CC000F5CFEF92FF920F931F93CF93DF93FC0119
:101CD000E080F180C7014A9641F480E0DF91CF9126
:101CE0001F910F91FF90EF9008958B016281738196
:101CF000A7010E94780DEC01009779F3F8010081AB
:101D00001181B7010E94ED048CE08C83012E000C40
:101D1000220B330B088319832A833B8381E0DECFB8
:101D2000AF92BF92CF92DF92FF920F931F93CF9308
:101D3000DF93CDB7DEB7A4970FB6F894DEBF0FBE22
:101D4000CDBF83E480937C0080917A00806480938F
:101D50007A0080917A0086FDFCCF609178007091C6
:101D60007900072E000C880B990B0E947D1720E04C
:101D700030E040E85AE30E94DC1720E030E040EA1F
:101D800050E40E94DC179B01AC010E942D1920E059
:101D900030E048EC52E40E94DC170E940B1A072E38
:101DA000000C880B990B0E947D1720E030E048EC76
:101DB00052E40E9499196D8B7E8B8F8B988F4FEC1C
:101DC000C42E44E0D42EDA82C9828BE991E09C8350
:101DD0008B83BE016B5E7F4F8E010F5F1F4FC8016B
:101DE0000E94300E0E94B504F82E8695BB24B39451
:101DF0008B2581708D8B1E8ADA82C9828EE991E0F3
:101E00009C838B83BE016B5E7F4FC8010E94610E75
:101E1000F094F0FAFF24F0F8FD8A1E8ADA82C98273
:101E20008DEA91E09C838B83BE016B5E7F4FC8017E
:101E30000E94610E0E946B0C20E030E048EC52E4FE
:101E40000E94DC170E940B1A072E000C880B990BBE
:101E50000E947D1720E030E048EC52E40E9499197E
:101E600069A37AA38BA39CA3DA82C98280EA91E05A
:101E70009C838B83BE016F5D7F4FC8010E94300E33
:101E800068E085E094E00E94250C8823F9F0109228
:101E900071028FEF80930101109266021092670227
:101EA00010926802109269020E941306A4960FB65F
:101EB000F894DEBF0FBECDBFDF91CF911F910F9180
:101EC000FF90DF90CF90BF90AF90089564E085E0E1
:101ED00094E00E94250CF0907102882309F43FC120
:101EE00022E0F21619F082E0809371026CE085E046
:101EF00094E00E94250C882309F447C180915E027A
:101F0000811143C182EA91E00E9489061E8A1D8ADE
:101F1000188E1F8A1A8E198E4AE0B80185E090E06B
:101F20000E944C17F80101900020E9F73197AF01AA
:101F3000401B510BB801CE0145960E949D0B6D8947
:101F40007E8920E0A8018AEA91E00E94070BCE0179
:101F500045960E94920B81E080935E02809171020F
:101F6000843019F18FEF8093010110926602109274
:101F70006702109268021092690210926202109237
:101F8000630210926402109265021E8A1D8A8FEC11
:101F900094E09A83898388EB91E09C838B83BE01D4
:101FA0006B5E7F4FC8010E94610E10924A024AE4A4
:101FB00052E069E085E094E00E94C50680914A0203
:101FC000882309F48EC081E090E09E8B8D8B9FEC7E
:101FD000A92E94E0B92EBA82A98228EBC22E21E064
:101FE000D22EDC82CB82BE016B5E7F4FC8010E9485
:101FF000610E0E940A0A1E8A1D8ABA82A982DC82A8
:10200000CB82BE016B5E7F4FC8010E94610E1C8EA9
:102010001B8E1E8E1D8E18A21F8E6AE472E0CE01EA
:102020004B960E94DC0B33E9A32E30E0B32EF12C4B
:10203000F50165917491C8010E9430171E8A1D8AAE
:10204000188E1F8A1A8E198EF80101900020E9F768
:102050003197AF01401B510BB801CE0145960E944C
:102060009D0B8F8D98A1892B09F4AAC0CB8CDC8C99
:102070006D897E89C6010E94671C009709F4A0C083
:102080009C012C193D096901CE0145960E94920BD5
:10209000CD20C09409F498C01F2DCE014B960E940C
:1020A000920B1F3FF1F01093010134E01302F00195
:1020B0001124EF5DFE4F80819181A281B3818093D5
:1020C000660290936702A0936802B09369020E942F
:1020D000C0026093620270936302809364029093E3
:1020E0006502809101018F3F19F084E080937102B5
:1020F00083E00E94E60B209102012817190691F057
:1021000020917102222311F0253019F423E020934D
:1021100071028D38910514F08CE890E097FD80E015
:10212000809302018AE00E94E60B8C0180E10E940C
:10213000E60B0115110559F4009749F420916A0244
:10214000211105C020916B02222309F4AFCE93E048
:102150009093710200936A0280936B02A7CE65E0B0
:1021600085E094E00E94250C882339F031E0F316D5
:1021700009F4BCCEB0927102B9CE8FEF8F0D8230D0
:1021800008F0B4CE109271028FCE6CE085E094E03E
:102190000E94250C8111E2CE80915E02882309F411
:1021A000DDCE8FEA91E00E94890620E0A8016BED68
:1021B00071E08AEA91E00E94070B10925E02CECE97
:1021C000CC24CA94DC2C60CFF39482E0A80EB11C1E
:1021D00025E0F2122DCF1FEF60CFCB010C94671AD0
:1021E0001F920F920FB60F9211242F933F938F934C
:1021F0009F93AF93BF938091730290917402A091CB
:102200007502B09176023091720223E0230F2D37D0
:1022100058F50196A11DB11D20937202809373029F
:1022200090937402A0937502B09376028091770226
:1022300090917802A0917902B0917A020196A11D45
:10224000B11D8093770290937802A0937902B093A6
:102250007A02BF91AF919F918F913F912F910F90F3
:102260000FBE0F901F90189526E8230F0296A11D10
:10227000B11DD2CF1F920F920FB60F9211242F9340
:102280003F934F935F936F937F938F939F93AF93FE
:10229000BF93EF93FF9380E393E00E944A03FF9183
:1022A000EF91BF91AF919F918F917F916F915F91CE
:1022B0004F913F912F910F900FBE0F901F90189547
:1022C0001F920F920FB60F9211242F938F939F930B
:1022D000EF93FF93E0914003F09141038081E091FF
:1022E0004603F091470382FD1BC090818091490312
:1022F0008F5F8F7320914A03821741F0E091490369
:10230000F0E0E05DFC4F958F80934903FF91EF91E2
:102310009F918F912F910F900FBE0F901F90189546
:102320008081F4CF1F920F920FB60F9211242F933A
:102330003F934F936F937F938F939F93AF93BF93ED
:10234000EF93FF93809107018F5F809307018111C5
:1023500038C0ECE7F2E047818581411103C09085E8
:102360009923E9F090E03681232F30E0BC01621B15
:10237000730B161617064CF4442389F0240F311DF5
:102380002817390764F4C9010AC0672B41F040855A
:10239000442329F0241B310982179307A4F3868371
:1023A0008681882349F09181A281B3818481911132
:1023B00031C09C91892B8C93399683E0E033F807E8
:1023C00051F6ECE7F2E0808187FD0FC080910701B4
:1023D000968198130AC0A281B38184819181911161
:1023E0001DC09C91809589238C93399683E0E033BE
:1023F000F80749F7FF91EF91BF91AF919F918F91AE
:102400007F916F914F913F912F910F900FBE0F9041
:102410001F9018959C9180958923CDCF9C91892BF5
:10242000E3CFCF92DF92EF92FF920F931F93E82FAB
:10243000F92F05C0015011092109310961F190817D
:1024400096239417B9F305C00150110921093109E8
:1024500011F1908196239413F7CFC12CD12CE12C4C
:10246000F12C0AC08FEFC81AD80AE80AF80A0C152E
:102470001D052E053F0579F080818623841791F391
:102480006C2D7D2D8E2D9F2D1F910F91FF90EF9024
:10249000DF90CF90089560E070E080E090E01F91C1
:1024A0000F91FF90EF90DF90CF900895E0E3F3E07D
:1024B0001382128288EE93E0A0E0B0E084839583DB
:1024C000A683B78383E491E09183808385EC90E0D9
:1024D0009587848784EC90E09787868780EC90E0EE
:1024E000918B808B81EC90E0938B828B82EC90E0DF
:1024F000958B848B86EC90E0978B868B118E128E59
:10250000138E148E0E94C0026093CD037093CE038D
:102510008093CF039093D0030E94C00210920404D2
:1025200081E08093CD041092CE0428E031E0309316
:10253000D0042093CF041092D1041092D3041092AF
:10254000D20424ED34E03093E5042093E4041092A7
:10255000E60494E09093E7049FEF9093E8041092D0
:10256000ED049093EE048093EF046AEB71E08AEE41
:1025700093E00E94521C6AEB71E081ED93E00E94AF
:10258000521C109203040895CF93DF93CDB7DEB7AA
:10259000E2970FB6F894DEBF0FBECDBF789484B536
:1025A000826084BD84B5816084BD85B5826085BD4F
:1025B00085B5816085BD80916E00816080936E00DD
:1025C00010928100809181008260809381008091CF
:1025D0008100816080938100809180008160809380
:1025E00080008091B10084608093B1008091B00040
:1025F00081608093B00080917A00846080937A003B
:1026000080917A00826080937A0080917A00816064
:1026100080937A0080917A00806880937A0010928B
:10262000C1000E94C0021B01E0914003F0914103F0
:1026300012E01083E0913C03F0913D031082E091A1
:102640003E03F0913F0380E1808310924803E091C4
:102650004403F091450386E08083E0914203F091CA
:102660004303808180618083E0914203F0914303C2
:10267000808188608083E0914203F09143038081F0
:1026800080688083E0914203F091430380818F7DD5
:10269000808384EC91E00E942A0687ED91E00E94FD
:1026A000890685E091E00E94370681E087BB1093A0
:1026B000B1001093B00082E88093B30010937000D3
:1026C000ECE7F2E08FEF808311821382128217828F
:1026D0001086399623E0E033F207A9F710927B02C7
:1026E000CE0101964C017E019AE1E90EF11C6E01CA
:1026F000E4E0CE0ED11C54018701409014015090AB
:1027000015016090160149825A826B8260E0F401E3
:1027100081914F010E94F4014A8E5B8E6C8EF7010D
:1027200081917F010E942E01C814D90461F740E015
:1027300065EA8FEF0E948404750168014E01F5E09F
:102740008F0E911C40901001509011016090120169
:102750007090130149825A826B827C8260E0F7019B
:1027600081917F010E94F4014A8E5B8E6C8E7D8E7A
:10277000F60181916F010E942E01E814F90451F7CE
:1027800060E088E00E94C30160E087E00E94C3012E
:1027900060E081E10E94C30186E08093030460E071
:1027A0000E94F401809103040E942E018AE50E9498
:1027B0004A0288EB9BE0A0E0B0E080930301909395
:1027C0000401A0930501B093060121E0A50166E68E
:1027D00071E08DED91E00E94070B87EE90E00E9482
:1027E000B903C5010E94890688EE93E0A0E0B0E03D
:1027F0008093030190930401A0930501B093060117
:1028000021E0A8016AEE73E083EE91E00E94070BDD
:1028100021E0A80161ED73E088EE91E00E94070BD2
:1028200021E0A8016AEB71E08DEE91E00E94070BB8
:1028300021E0A80162EF71E08BEF91E00E94070BAD
:1028400021E0A8016FEF71E081E092E00E94070BA8
:1028500021E0A80166E072E08BE092E00E94070BA5
:1028600088E893E1A0E0B0E0809303019093040135
:10287000A0930501B093060121E0A80166E671E08E
:1028800080E192E00E94070B64E170E080E090E05C
:102890000E948E028CEC90E00E94B903C8010E9455
:1028A0002A068AEC90E00E94B90386E092E00E943A
:1028B000890688EA90E00E94B903C8010E942A06AE
:1028C0008DE990E00E94370684E690E0A0E0B0E059
:1028D0008093030190930401A0930501B093060136
:1028E00080E99EE09093600280935F026101330C67
:1028F000EE08FF080E94C0026C197D098E099F092D
:10290000643F71408105910538F461E070E080E03A
:1029100090E00E948E02EECF8FEF90E00E9437068B
:102920004AE06FEF8AE00E9484048824839480E068
:10293000A82E80E0B82E01E095E0392E2AE5922EEF
:1029400085E094E00E94330A80910504811104C05F
:102950008091CD04882391F146E050E066E172E079
:1029600085E094E00E94591C892B09F046C0109222
:1029700004048091EF048823F9F00E94C002C09003
:10298000CD03D090CE03E090CF03F090D0036C192C
:102990007D098E099F096D3371058105910560F0F0
:1029A0000E940A0A0E94C0026093CD037093CE0376
:1029B0008093CF039093D0031092CD0480910404B0
:1029C000811170C03092710280917102823009F4DD
:1029D0000CC108F06FC0882309F49AC0813009F453
:1029E000A8C0A114B10409F4ABCF0E943603882318
:1029F00009F4A6CF0E940000A3CF4BE050E06DE1A8
:102A000072E085E094E00E94591C892B19F4009330
:102A10000404AFCF4EE050E069E272E085E094E05C
:102A20000E94591C892B09F4A2CF49E050E068E3C9
:102A300072E085E094E00E94591C892B51F480914A
:102A40000404882309F493CF84E191E00E943706BF
:102A50008ECF43E050E062E472E085E094E00E94B3
:102A6000591C892BC9F486E492E00E94890685E00E
:102A700094E00E9489060093040463E070E085E01E
:102A800094E00E949B06E0915F02F0916002309713
:102A900009F46FCF09956DCF8091CD04823009F094
:102AA00068CFB5CF80917102853009F08DCF10923B
:102AB00071028ACF843009F407C108F4F5C085306B
:102AC00009F08FCF0E94C002C0906D02D0906E02BC
:102AD000E0906F02F09070026C197D098E099F09D9
:102AE000653F71408105910578F080916C028825E1
:102AF00080936C020E94C00260936D0270936E021C
:102B000080936F029093700280916C02882369F029
:102B10004FEF6FEF8FEF0E9484040E941306909294
:102B200002018AE50E944A025CCF40E060E080E05A
:102B3000F2CF4FEF6AE08AE00E94840480910201A4
:102B40000E944A020E94B504182F0E946B0C6B0170
:102B50007C0120E030E040E850E40E94761787FFD7
:102B60000CC020E030E0A901C701B6010E94411A63
:102B700018161CF40E94130634CF20E030E040E227
:102B800051E4C701B6010E94761787FF0DC020E00F
:102B900030E0A901C701B6010E94411A181624F4B9
:102BA0008EE10E9427061DCF20E030E040EA51E48C
:102BB000C701B6010E94761787FF0BC020E030E006
:102BC000A901C701B6010E94411A181614F480E544
:102BD000E8CF11FD04C080E50E941F0602CF10FD62
:102BE000C9CF80E50E941B06FCCE4FEF6AE085EA64
:102BF0000E948404809102010E944A020E94B5044E
:102C0000982F9270F92E182F11700E946B0C2B01C7
:102C10003C0120E030E040EA51E40E94411A1816DD
:102C20004CF020E030E0A901C301B2010E94761708
:102C300087FF07C0FF20C1F0112339F00093610224
:102C4000C6CFFF2089F0111111C0809100018130A1
:102C500029F080916102882309F4C3CE80E50E94A7
:102C60001F060093000109C011110EC080910001E0
:102C7000813031F480E50E941F0610926102B1CECE
:102C800080E50E941B06F9CF809100018F3F29F05B
:102C900080916102882309F4A4CE80E50E941B067E
:102CA0008FEF80930001E9CF4FEF6FEF8FEF0E941E
:102CB0008404809102010E944A0260916B0280911B
:102CC0006A020E945D058DCE4FEF6FEF8AE00E9491
:102CD0008404809102010E944A02C0906602D09052
:102CE0006702E0906802F0906902EFEFCE16DE0610
:102CF000EE06FE0661F4E0910101EE0FFF0BEB5CC6
:102D0000FE4F0190F081E02D80E509956ACE0E948A
:102D1000C00220916202309163024091640250919E
:102D20006502621B730B840B950BC616D706E8066B
:102D3000F90608F710927102109262021092630273
:102D400010926402109265028FEF8093010149CEC8
:102D5000FF920F931F93CF93DF93C091CF04D09135
:102D6000D0046091D2047091D3046115710579F09B
:102D7000DB018D919C919093D3048093D204E881E0
:102D8000F9810280F381E02DCE010995EACF00910F
:102D9000CF041091D004F12C6091E4047091E5040B
:102DA0008091E604F816C8F4B4E0FB9EE00111241B
:102DB000C60FD71F6A817B816115710541F0D8016B
:102DC000ED91FC910280F381E02DC80109951B82F1
:102DD0001A8218821982F394DFCF1092E6048FEFE3
:102DE0008093E804B4E0643D7B0769F0D801ED917D
:102DF000FC910280F381E02DC801DF91CF911F91FA
:102E00000F91FF900994DF91CF911F910F91FF9047
:102E100008951F93FC0199278827BC01E89411911C
:102E20001032E9F3193010F01E30C8F31B3251F0A4
:102E30001D3249F4689406C00E943717610F711D56
:102E4000811D911D119110531A30B0F33EF49095ED
:102E50008095709561957F4F8F4F9F4F1F9108957B
:102E6000FB01DC0105900D920020E1F70895592F38
:102E7000482F372F262F660F771F881F991F660F41
:102E8000771F881F991F620F731F841F951F660F7E
:102E9000771F881F991F0895BB27FB015527AA2775
:102EA000880F991FAA1FA41710F0A41B83955051D7
:102EB000B9F7A05DAA3308F0A95DA193009779F74F
:102EC000B111B1931192CB010C946617DC01FC0196
:102ED000672F71917723E1F7329704C07C916D934E
:102EE00070836291AE17BF07C8F308950E94B817A8
:102EF00008F481E00895E89409C097FB3EF49095AA
:102F00008095709561957F4F8F4F9F4F9923A9F0C2
:102F1000F92F96E9BB279395F69587957795679551
:102F2000B795F111F8CFFAF4BB0F11F460FF1BC095
:102F30006F5F7F4F8F4F9F4F16C0882311F096E928
:102F400011C0772321F09EE8872F762F05C06623D6
:102F500071F096E8862F70E060E02AF09A95660F8F
:102F6000771F881FDAF7880F9695879597F9089548
:102F7000990F0008550FAA0BE0E8FEEF161617068A
:102F8000E807F907C0F012161306E407F50798F0F2
:102F9000621B730B840B950B39F40A2661F0232B0B
:102FA000242B252B21F408950A2609F4A140A69587
:102FB0008FEF811D811D08950E94EF170C946018FA
:102FC0000E94521838F00E94591820F0952311F0F1
:102FD0000C9449180C944F1811240C9494180E94C6
:102FE000711870F3959FC1F3950F50E0551F629FC4
:102FF000F001729FBB27F00DB11D639FAA27F00D52
:10300000B11DAA1F649F6627B00DA11D661F829F78
:103010002227B00DA11D621F739FB00DA11D621F5D
:10302000839FA00D611D221F749F3327A00D611D7A
:10303000231F849F600D211D822F762F6A2F11245C
:103040009F5750409AF0F1F088234AF0EE0FFF1F8F
:10305000BB1F661F771F881F91505040A9F79E3FE6
:10306000510580F00C9449180C9494185F3FE4F3D8
:10307000983ED4F3869577956795B795F795E7953C
:103080009F5FC1F7FE2B880F911D9695879597F945
:10309000089597F99F6780E870E060E008959FEFDA
:1030A00080EC089500240A941616170618060906DF
:1030B000089500240A9412161306140605060895AE
:1030C000092E0394000C11F4882352F0BB0F40F436
:1030D000BF2B11F460FF04C06F5F7F4F8F4F9F4F76
:1030E000089557FD9058440F551F59F05F3F71F0F8
:1030F0004795880F97FB991F61F09F3F79F087955F
:103100000895121613061406551FF2CF4695F1DFE7
:1031100008C0161617061806991FF1CF8695710577
:10312000610508940895E894BB2766277727CB01AB
:1031300097F90895052E97FB1EF400940E94B1188C
:1031400057FD07D00E94FB1807FC03D04EF40C94E7
:10315000B11850954095309521953F4F4F4F5F4F97
:10316000089590958095709561957F4F8F4F9F4FF3
:1031700008950E941D19A59F900DB49F900DA49FC6
:10318000800D911D112408952F923F924F925F92CE
:103190006F927F928F929F92AF92BF92CF92DF9267
:1031A000EF92FF920F931F93CF93DF93CDB7DEB7CC
:1031B000CA1BDB0B0FB6F894DEBF0FBECDBF099460
:1031C0002A88398848885F846E847D848C849B84B7
:1031D000AA84B984C884DF80EE80FD800C811B81C5
:1031E000AA81B981CE0FD11D0FB6F894DEBF0FBEF4
:1031F000CDBFED010895A1E21A2EAA1BBB1BFD0154
:103200000DC0AA1FBB1FEE1FFF1FA217B307E407C5
:10321000F50720F0A21BB30BE40BF50B661F771F1D
:10322000881F991F1A9469F76095709580959095FD
:103230009B01AC01BD01CF010895A29FB001B39FD6
:10324000C001A39F700D811D1124911DB29F700DAF
:10325000811D1124911D08955058BB27AA270E9453
:1032600044190C9460180E94521838F00E945918A2
:1032700020F039F49F3F19F426F40C944F180EF403
:10328000E095E7FB0C944918E92F0E94711858F358
:10329000BA17620773078407950720F079F4A6F53B
:1032A0000C9493180EF4E0950B2EBA2FA02D0B0161
:1032B000B90190010C01CA01A0011124FF27591B7B
:1032C00099F0593F50F4503E68F11A16F040A22F81
:1032D000232F342F4427585FF3CF469537952795F2
:1032E000A795F0405395C9F77EF41F16BA0B620BF1
:1032F000730B840BBAF09150A1F0FF0FBB1F661F38
:10330000771F881FC2F70EC0BA0F621F731F841F7A
:1033100048F4879577956795B795F7959E3F08F0A0
:10332000B0CF9395880F08F09927EE0F9795879562
:1033300008950E94AD190C9460180E94591858F015
:103340000E94521840F029F45F3F29F00C9449186C
:1033500051110C9494180C944F180E94711868F332
:103360009923B1F3552391F3951B550BBB27AA273E
:1033700062177307840738F09F5F5F4F220F331F78
:10338000441FAA1FA9F335D00E2E3AF0E0E832D040
:1033900091505040E695001CCAF72BD0FE2F29D043
:1033A000660F771F881FBB1F261737074807AB0715
:1033B000B0E809F0BB0B802DBF01FF2793585F4F8A
:1033C0003AF09E3F510578F00C9449180C949418EB
:1033D0005F3FE4F3983ED4F3869577956795B7956C
:1033E000F7959F5FC9F7880F911D9695879597F977
:1033F0000895E1E0660F771F881FBB1F62177307F0
:103400008407BA0720F0621B730B840BBA0BEE1F04
:1034100088F7E09508950E94121A6894B1110C94EF
:10342000941808950E94791888F09F5798F0B92F42
:103430009927B751B0F0E1F0660F771F881F991FE9
:103440001AF0BA95C9F714C0B13091F00E949318E0
:10345000B1E008950C949318672F782F8827B85FF0
:1034600039F0B93FCCF3869577956795B395D9F741
:103470003EF490958095709561957F4F8F4F9F4F4B
:1034800008950E94B81708F48FEF0895AA1BBB1B7C
:1034900051E107C0AA1FBB1FA617B70710F0A61B54
:1034A000B70B881F991F5A95A9F780959095BC0175
:1034B000CD0108950E941D19B7FF0895821B930B3B
:1034C0000895EE0FFF1F0590F491E02D09940F93DE
:1034D0001F93CF93DF938230910510F482E090E048
:1034E000E091F204F091F30430E020E0B0E0A0E0DD
:1034F000309799F42115310509F44AC0281B390B7E
:1035000024303105D8F58A819B816115710589F1D7
:10351000FB0193838283FE0111C0408151810281AE
:10352000138148175907E0F04817590799F4109785
:1035300061F012960C93129713961C933296CF015A
:10354000DF91CF911F910F9108950093F204109392
:10355000F304F4CF2115310551F04217530738F029
:10356000A901DB019A01BD01DF01F801C1CFEF0123
:10357000F9CF9093F3048093F204CDCFFE01E20FD4
:10358000F31F819391932250310939832883D7CF38
:103590002091F0043091F104232B41F420910C018F
:1035A00030910D013093F1042093F00420910A0131
:1035B00030910B012115310541F42DB73EB74091F3
:1035C0000E0150910F01241B350BE091F004F09196
:1035D000F104E217F307A0F42E1B3F0B281739075D
:1035E00078F0AC014E5F5F4F2417350748F04E0F5F
:1035F0005F1F5093F1044093F004819391939FCF08
:10360000F0E0E0E09CCFCF93DF930097E9F0FC017E
:10361000329713821282A091F204B091F304ED016B
:1036200030E020E01097A1F420813181820F931FB8
:103630002091F0043091F1042817390709F061C096
:10364000F093F104E093F004DF91CF910895EA0143
:10365000CE17DF07E8F54A815B819E0141155105D0
:10366000B1F7E901FB83EA8349915991C40FD51F52
:10367000EC17FD0761F4808191810296840F951FFC
:10368000E90199838883828193819B838A83F0E017
:10369000E0E012968D919C9113970097B9F52D91CA
:1036A0003C911197CD010296820F931F2091F00457
:1036B0003091F1042817390739F6309751F51092F7
:1036C000F3041092F204B093F104A093F004BCCF81
:1036D000D383C28340815181840F951FC817D907B6
:1036E00061F44E5F5F4F88819981480F591F518364
:1036F00040838A819B81938382832115310509F060
:10370000B0CFF093F304E093F2049ECFFD01DC010F
:10371000C0CF13821282D7CFB0E0A0E0E2E9FBE194
:103720000C94C6188C01009751F4CB010E94671AC3
:103730008C01C801CDB7DEB7E0E10C94E218FC01C2
:10374000E60FF71F9C0122503109E217F30708F436
:103750009DC0D901CD91DC911197C617D70798F07C
:10376000C530D10530F3CE0104978617970708F3CB
:10377000C61BD70B2297C193D1936D937C93CF0136
:103780000E94031BD6CF5B01AC1ABD0A4C018C0E04
:103790009D1EA091F204B091F304512C412CF12C08
:1037A000E12C109731F58091F0049091F104881587
:1037B000990509F05CC04616570608F058C080917C
:1037C0000A0190910B01009741F48DB79EB740918B
:1037D0000E0150910F01841B950BE817F90708F0B3
:1037E00055C0F093F104E093F004F9017183608314
:1037F000A0CF8D919C91119712966C901297139671
:103800007C901397A815B90559F56C0142E0C40ED8
:10381000D11CCA14DB0420F1AC014A195B09DA019E
:103820001296159780F06282738251834083D9018A
:103830006D937C93E114F10471F0D7011396FC931E
:10384000EE93129776CF22968C0F9D1FF9019183EC
:103850008083F301EFCFF093F304E093F20469CF98
:103860004816590608F42C017D01D3019ACFCB01EB
:103870000E94671A7C01009749F0AE01B8010E94CE
:10388000491CC8010E94031B870153CF10E000E0D0
:1038900050CFFB01DC0102C001900D92415050401D
:1038A000D8F70895FB01DC0101900D920020E1F7AB
:1038B0000895FB01DC014150504030F08D910190A2
:1038C000801919F40020B9F7881B990B0895FB01A2
:1038D00051915523A9F0BF01DC014D9145174111CC
:1038E000E1F759F4CD010190002049F04D914015C8
:1038F0004111C9F3FB014111EFCF81E090E0019745
:10390000089511E0C3E0D1E004C0FE010E94611AF5
:0C3910002196C430D107C9F7F894FFCF0E
:10391C00FFFF5A64000000FF1B010000F40480004C
:10392C00020304050C0D0B00000000ED109A0B6750
:10393C000C01000000FFFFFFFFFFFFFFFFB80B00B3
:10394C0000B80B00001706270623061F061B0600EF
:10395C000000006C03CC02F902D4032A0308031CF8
:10396C00030D0A002F2F272722225C5C6208660CAD
:10397C006E0A720D7409005C7530303030006E7553
:10398C006C6C00747275650066616C7365002C203C
:10399C0061637475616C3A20005753422B005B4392
:1039AC00414D5F445D005B4F4B5D004256004E0045
:1039BC004F006C616D70206F6E004C414D50006C6F
:1039CC00616D70206F6666004A0047616C617879A2
:1039DC005256520047616C61787952565220766586
:1039EC007273696F6E2000312E312E3000524553A8
:1039FC004554004E414D45005459504500535349D0
:103A0C00440031323334353637380050534B0032A2
:103A1C00004D4F4445003837363500504F52540056
:103A2C005354415254005B496E69745D005B434FC3
:103A3C004E4E45435445445D005B444953434F4E01
:103A4C004E45435445445D005B41505053544F50D8
:0A3A5C005D0057532B0052583A004A
:00000001FF
